{
  "contractName": "Permits",
  "abi": [
    {
      "constant": true,
      "inputs": [
        {
          "name": "",
          "type": "address"
        },
        {
          "name": "",
          "type": "uint256"
        }
      ],
      "name": "validitymapping",
      "outputs": [
        {
          "name": "",
          "type": "uint256"
        }
      ],
      "payable": false,
      "stateMutability": "view",
      "type": "function"
    },
    {
      "constant": true,
      "inputs": [
        {
          "name": "",
          "type": "address"
        },
        {
          "name": "",
          "type": "uint256"
        }
      ],
      "name": "datastringmapping",
      "outputs": [
        {
          "name": "",
          "type": "string"
        }
      ],
      "payable": false,
      "stateMutability": "view",
      "type": "function"
    },
    {
      "constant": true,
      "inputs": [
        {
          "name": "",
          "type": "address"
        }
      ],
      "name": "ImportPermit_officials",
      "outputs": [
        {
          "name": "name",
          "type": "string"
        },
        {
          "name": "isauthorized",
          "type": "bool"
        }
      ],
      "payable": false,
      "stateMutability": "view",
      "type": "function"
    },
    {
      "constant": true,
      "inputs": [
        {
          "name": "",
          "type": "address"
        },
        {
          "name": "",
          "type": "uint256"
        }
      ],
      "name": "databoolmapping",
      "outputs": [
        {
          "name": "",
          "type": "bool"
        }
      ],
      "payable": false,
      "stateMutability": "view",
      "type": "function"
    },
    {
      "constant": true,
      "inputs": [
        {
          "name": "",
          "type": "address"
        },
        {
          "name": "",
          "type": "uint256"
        }
      ],
      "name": "dataofficialaddressmapping",
      "outputs": [
        {
          "name": "",
          "type": "address"
        }
      ],
      "payable": false,
      "stateMutability": "view",
      "type": "function"
    },
    {
      "constant": true,
      "inputs": [
        {
          "name": "",
          "type": "address"
        },
        {
          "name": "",
          "type": "uint256"
        }
      ],
      "name": "datatimestampmapping",
      "outputs": [
        {
          "name": "",
          "type": "uint256"
        }
      ],
      "payable": false,
      "stateMutability": "view",
      "type": "function"
    },
    {
      "inputs": [],
      "payable": false,
      "stateMutability": "nonpayable",
      "type": "constructor"
    },
    {
      "anonymous": false,
      "inputs": [
        {
          "indexed": true,
          "name": "_uniqueId",
          "type": "address"
        }
      ],
      "name": "GetUniqueIdEvent",
      "type": "event"
    },
    {
      "anonymous": false,
      "inputs": [
        {
          "indexed": true,
          "name": "_isgenerated",
          "type": "bool"
        }
      ],
      "name": "CheckUniqueIdEvent",
      "type": "event"
    },
    {
      "constant": false,
      "inputs": [],
      "name": "GetUniqueId",
      "outputs": [],
      "payable": false,
      "stateMutability": "nonpayable",
      "type": "function"
    },
    {
      "constant": false,
      "inputs": [
        {
          "name": "_uniqueId",
          "type": "address"
        },
        {
          "name": "_name",
          "type": "string"
        },
        {
          "name": "_postaladdress",
          "type": "string"
        },
        {
          "name": "_PAN_number",
          "type": "string"
        },
        {
          "name": "_country",
          "type": "string"
        },
        {
          "name": "_Aadhar_number",
          "type": "string"
        }
      ],
      "name": "SetImportPermitdata",
      "outputs": [
        {
          "name": "",
          "type": "string"
        }
      ],
      "payable": false,
      "stateMutability": "nonpayable",
      "type": "function"
    },
    {
      "constant": false,
      "inputs": [
        {
          "name": "_address",
          "type": "address"
        },
        {
          "name": "_name",
          "type": "string"
        }
      ],
      "name": "authorize_ImportPermit",
      "outputs": [
        {
          "name": "",
          "type": "string"
        }
      ],
      "payable": false,
      "stateMutability": "nonpayable",
      "type": "function"
    },
    {
      "constant": false,
      "inputs": [
        {
          "name": "_uniqueId",
          "type": "address"
        }
      ],
      "name": "sign_Import_Permit",
      "outputs": [
        {
          "name": "",
          "type": "string"
        }
      ],
      "payable": false,
      "stateMutability": "nonpayable",
      "type": "function"
    }
  ],
  "bytecode": "0x608060405234801561001057600080fd5b50336000806101000a81548173ffffffffffffffffffffffffffffffffffffffff021916908373ffffffffffffffffffffffffffffffffffffffff160217905550611855806100606000396000f3006080604052600436106100a4576000357c0100000000000000000000000000000000000000000000000000000000900463ffffffff1680630c227438146100a957806312b52dcd146100e657806353034ee714610123578063901b1cd314610160578063a8ac5fa014610177578063ada7d147146101b4578063b0d7d42c146101f1578063c2f14ad11461022f578063e57c2b311461026c578063e6a43ec9146102a9575b600080fd5b3480156100b557600080fd5b506100d060048036036100cb91908101906113ae565b6102e6565b6040516100dd9190611682565b60405180910390f35b3480156100f257600080fd5b5061010d600480360361010891908101906113d7565b610601565b60405161011a9190611682565b60405180910390f35b34801561012f57600080fd5b5061014a6004803603610145919081019061152c565b61088b565b60405161015791906116d4565b60405180910390f35b34801561016c57600080fd5b506101756108b2565b005b34801561018357600080fd5b5061019e6004803603610199919081019061142b565b610a02565b6040516101ab9190611682565b60405180910390f35b3480156101c057600080fd5b506101db60048036036101d6919081019061152c565b61104c565b6040516101e89190611660565b60405180910390f35b3480156101fd57600080fd5b50610218600480360361021391908101906113ae565b61110b565b6040516102269291906116a4565b60405180910390f35b34801561023b57600080fd5b506102566004803603610251919081019061152c565b6111d4565b6040516102639190611645565b60405180910390f35b34801561027857600080fd5b50610293600480360361028e919081019061152c565b61120c565b6040516102a0919061162a565b60405180910390f35b3480156102b557600080fd5b506102d060048036036102cb919081019061152c565b611250565b6040516102dd91906116d4565b60405180910390f35b6060600660003373ffffffffffffffffffffffffffffffffffffffff1673ffffffffffffffffffffffffffffffffffffffff16815260200190815260200160002060010160009054906101000a900460ff16151561034357600080fd5b600160008373ffffffffffffffffffffffffffffffffffffffff1673ffffffffffffffffffffffffffffffffffffffff1681526020019081526020016000206002601e8110151561039057fe5b602091828204019190069054906101000a900460ff16156103b057600080fd5b600160008373ffffffffffffffffffffffffffffffffffffffff1673ffffffffffffffffffffffffffffffffffffffff1681526020019081526020016000206000601e811015156103fd57fe5b602091828204019190069054906101000a900460ff16151561041e57600080fd5b33600560008473ffffffffffffffffffffffffffffffffffffffff1673ffffffffffffffffffffffffffffffffffffffff168152602001908152602001600020600060148110151561046c57fe5b0160006101000a81548173ffffffffffffffffffffffffffffffffffffffff021916908373ffffffffffffffffffffffffffffffffffffffff16021790555060018060008473ffffffffffffffffffffffffffffffffffffffff1673ffffffffffffffffffffffffffffffffffffffff1681526020019081526020016000206002601e811015156104f957fe5b602091828204019190066101000a81548160ff02191690831515021790555042600260008473ffffffffffffffffffffffffffffffffffffffff1673ffffffffffffffffffffffffffffffffffffffff168152602001908152602001600020600160148110151561056657fe5b01819055506303c267004201600460008473ffffffffffffffffffffffffffffffffffffffff1673ffffffffffffffffffffffffffffffffffffffff16815260200190815260200160002060006028811015156105bf57fe5b01819055506040805190810160405280601e81526020017f49474d20666f726d206973207369676e6564206279206f6666696369616c00008152509050919050565b60603373ffffffffffffffffffffffffffffffffffffffff166000809054906101000a900473ffffffffffffffffffffffffffffffffffffffff1673ffffffffffffffffffffffffffffffffffffffff1614151561065e57600080fd5b600660008473ffffffffffffffffffffffffffffffffffffffff1673ffffffffffffffffffffffffffffffffffffffff16815260200190815260200160002060010160009054906101000a900460ff1615156107ca576001600660008573ffffffffffffffffffffffffffffffffffffffff1673ffffffffffffffffffffffffffffffffffffffff16815260200190815260200160002060010160006101000a81548160ff02191690831515021790555081600660008573ffffffffffffffffffffffffffffffffffffffff1673ffffffffffffffffffffffffffffffffffffffff1681526020019081526020016000206000019080519060200190610765929190611277565b50606060405190810160405280602181526020017f496d706f72745065726d69745f6f6666696369616c7320617574686f72697a6581526020017f64000000000000000000000000000000000000000000000000000000000000008152509050610885565b6000600660008573ffffffffffffffffffffffffffffffffffffffff1673ffffffffffffffffffffffffffffffffffffffff16815260200190815260200160002060010160006101000a81548160ff021916908315150217905550606060405190810160405280602381526020017f496d706f72745065726d69745f6f6666696369616c7320756e617574686f726981526020017f7a6564000000000000000000000000000000000000000000000000000000000081525090505b92915050565b6004602052816000526040600020816028811015156108a657fe5b01600091509150505481565b600060023342604051808373ffffffffffffffffffffffffffffffffffffffff1673ffffffffffffffffffffffffffffffffffffffff166c01000000000000000000000000028152601401828152602001925050506020604051808303816000865af1158015610926573d6000803e3d6000fd5b5050506040513d601f19601f820116820180604052506109499190810190611568565b60019004905060018060008373ffffffffffffffffffffffffffffffffffffffff1673ffffffffffffffffffffffffffffffffffffffff1681526020019081526020016000206000601e8110151561099d57fe5b602091828204019190066101000a81548160ff0219169083151502179055508073ffffffffffffffffffffffffffffffffffffffff167fb05e7facb1893c2f6874964db9b1738601724af978281901c43bb184a37a424d60405160405180910390a250565b6060600160008873ffffffffffffffffffffffffffffffffffffffff1673ffffffffffffffffffffffffffffffffffffffff1681526020019081526020016000206000601e81101515610a5157fe5b602091828204019190069054906101000a900460ff161515610aa257600015157fbd70a8755b4f719e8e80bbb0fca601f2b000a3ce221c69b1bd5014fe1bfd747060405160405180910390a2600080fd5b600160008873ffffffffffffffffffffffffffffffffffffffff1673ffffffffffffffffffffffffffffffffffffffff1681526020019081526020016000206001601e81101515610aef57fe5b602091828204019190069054906101000a900460ff1615610b0f57600080fd5b6000600360008973ffffffffffffffffffffffffffffffffffffffff1673ffffffffffffffffffffffffffffffffffffffff1681526020019081526020016000206000601481101515610b5e57fe5b018054600181600116156101000203166002900490501415610bde5785600360008973ffffffffffffffffffffffffffffffffffffffff1673ffffffffffffffffffffffffffffffffffffffff1681526020019081526020016000206000601481101515610bc857fe5b019080519060200190610bdc929190611277565b505b6000600360008973ffffffffffffffffffffffffffffffffffffffff1673ffffffffffffffffffffffffffffffffffffffff1681526020019081526020016000206001601481101515610c2d57fe5b018054600181600116156101000203166002900490501415610cad5784600360008973ffffffffffffffffffffffffffffffffffffffff1673ffffffffffffffffffffffffffffffffffffffff1681526020019081526020016000206001601481101515610c9757fe5b019080519060200190610cab929190611277565b505b6000600360008973ffffffffffffffffffffffffffffffffffffffff1673ffffffffffffffffffffffffffffffffffffffff1681526020019081526020016000206002601481101515610cfc57fe5b018054600181600116156101000203166002900490501415610d7c5783600360008973ffffffffffffffffffffffffffffffffffffffff1673ffffffffffffffffffffffffffffffffffffffff1681526020019081526020016000206002601481101515610d6657fe5b019080519060200190610d7a929190611277565b505b6000600360008973ffffffffffffffffffffffffffffffffffffffff1673ffffffffffffffffffffffffffffffffffffffff1681526020019081526020016000206003601481101515610dcb57fe5b018054600181600116156101000203166002900490501415610e4b5782600360008973ffffffffffffffffffffffffffffffffffffffff1673ffffffffffffffffffffffffffffffffffffffff1681526020019081526020016000206003601481101515610e3557fe5b019080519060200190610e49929190611277565b505b6000600360008973ffffffffffffffffffffffffffffffffffffffff1673ffffffffffffffffffffffffffffffffffffffff1681526020019081526020016000206004601481101515610e9a57fe5b018054600181600116156101000203166002900490501415610f1a5781600360008973ffffffffffffffffffffffffffffffffffffffff1673ffffffffffffffffffffffffffffffffffffffff1681526020019081526020016000206004601481101515610f0457fe5b019080519060200190610f18929190611277565b505b42600260008973ffffffffffffffffffffffffffffffffffffffff1673ffffffffffffffffffffffffffffffffffffffff1681526020019081526020016000206000601481101515610f6857fe5b018190555060018060008973ffffffffffffffffffffffffffffffffffffffff1673ffffffffffffffffffffffffffffffffffffffff1681526020019081526020016000206001601e81101515610fbb57fe5b602091828204019190066101000a81548160ff021916908315150217905550600115157fbd70a8755b4f719e8e80bbb0fca601f2b000a3ce221c69b1bd5014fe1bfd747060405160405180910390a26040805190810160405280600c81526020017f554944206973207472756521000000000000000000000000000000000000000081525090509695505050505050565b60036020528160005260406000208160148110151561106757fe5b01600091509150508054600181600116156101000203166002900480601f0160208091040260200160405190810160405280929190818152602001828054600181600116156101000203166002900480156111035780601f106110d857610100808354040283529160200191611103565b820191906000526020600020905b8154815290600101906020018083116110e657829003601f168201915b505050505081565b6006602052806000526040600020600091509050806000018054600181600116156101000203166002900480601f0160208091040260200160405190810160405280929190818152602001828054600181600116156101000203166002900480156111b75780601f1061118c576101008083540402835291602001916111b7565b820191906000526020600020905b81548152906001019060200180831161119a57829003601f168201915b5050505050908060010160009054906101000a900460ff16905082565b600160205281600052604060002081601e811015156111ef57fe5b60209182820401919006915091509054906101000a900460ff1681565b60056020528160005260406000208160148110151561122757fe5b016000915091509054906101000a900473ffffffffffffffffffffffffffffffffffffffff1681565b60026020528160005260406000208160148110151561126b57fe5b01600091509150505481565b828054600181600116156101000203166002900490600052602060002090601f016020900481019282601f106112b857805160ff19168380011785556112e6565b828001600101855582156112e6579182015b828111156112e55782518255916020019190600101906112ca565b5b5090506112f391906112f7565b5090565b61131991905b808211156113155760008160009055506001016112fd565b5090565b90565b60006113288235611794565b905092915050565b600061133c82516117b4565b905092915050565b600082601f830112151561135757600080fd5b813561136a6113658261171c565b6116ef565b9150808252602083016020830185838301111561138657600080fd5b6113918382846117c8565b50505092915050565b60006113a682356117be565b905092915050565b6000602082840312156113c057600080fd5b60006113ce8482850161131c565b91505092915050565b600080604083850312156113ea57600080fd5b60006113f88582860161131c565b925050602083013567ffffffffffffffff81111561141557600080fd5b61142185828601611344565b9150509250929050565b60008060008060008060c0878903121561144457600080fd5b600061145289828a0161131c565b965050602087013567ffffffffffffffff81111561146f57600080fd5b61147b89828a01611344565b955050604087013567ffffffffffffffff81111561149857600080fd5b6114a489828a01611344565b945050606087013567ffffffffffffffff8111156114c157600080fd5b6114cd89828a01611344565b935050608087013567ffffffffffffffff8111156114ea57600080fd5b6114f689828a01611344565b92505060a087013567ffffffffffffffff81111561151357600080fd5b61151f89828a01611344565b9150509295509295509295565b6000806040838503121561153f57600080fd5b600061154d8582860161131c565b925050602061155e8582860161139a565b9150509250929050565b60006020828403121561157a57600080fd5b600061158884828501611330565b91505092915050565b61159a8161175e565b82525050565b6115a98161177e565b82525050565b60006115ba82611753565b8084526115ce8160208601602086016117d7565b6115d78161180a565b602085010191505092915050565b60006115f082611748565b8084526116048160208601602086016117d7565b61160d8161180a565b602085010191505092915050565b6116248161178a565b82525050565b600060208201905061163f6000830184611591565b92915050565b600060208201905061165a60008301846115a0565b92915050565b6000602082019050818103600083015261167a81846115e5565b905092915050565b6000602082019050818103600083015261169c81846115af565b905092915050565b600060408201905081810360008301526116be81856115e5565b90506116cd60208301846115a0565b9392505050565b60006020820190506116e9600083018461161b565b92915050565b6000604051905081810181811067ffffffffffffffff8211171561171257600080fd5b8060405250919050565b600067ffffffffffffffff82111561173357600080fd5b601f19601f8301169050602081019050919050565b600081519050919050565b600081519050919050565b600073ffffffffffffffffffffffffffffffffffffffff82169050919050565b60008115159050919050565b6000819050919050565b600073ffffffffffffffffffffffffffffffffffffffff82169050919050565b6000819050919050565b6000819050919050565b82818337600083830152505050565b60005b838110156117f55780820151818401526020810190506117da565b83811115611804576000848401525b50505050565b6000601f19601f83011690509190505600a265627a7a723058205644a90dd6d04b80a67785860104441854a7d7dd551c8feb9205c245606eac696c6578706572696d656e74616cf50037",
  "source": "pragma solidity ^0.4.24;\npragma experimental ABIEncoderV2;\n\ncontract Permits{\n\n///////////////////////////STRUCT, VARIABLES AND MAPPINGS///////////////////////\n\n    address Owner;\n\n    mapping (address => bool[30]) public databoolmapping;\n    // isgenerated = 0; isImportPermitcreated = 1; isImportPermitverified = 2;\n    mapping (address => uint[20]) public datatimestampmapping;\n    // ImportPermitgeneration_timestamp = 0; ImportPermitverefication_timestamp = 1;\n    mapping (address => string[20]) public datastringmapping;\n    // name = 0; postaladdress = 1; PAN_number = 2; country = 3; Aadhar_number = 4\n    mapping (address => uint[40]) public validitymapping;\n    //ImportPermitvalidity = 0;\n    mapping (address => address[20]) public dataofficialaddressmapping;\n    //Import_Permit_official_address = 0;\n\n    struct ImportPermit_officialsStruct {\n        string name;\n        bool isauthorized;\n    }\n\n    mapping (address => ImportPermit_officialsStruct) public ImportPermit_officials;\n\n/////////////////////////STRUCT, VARIABLES AND MAPPINGS END//////////////////////\n\n//////////////////////////////////////EVENTS/////////////////////////////////////\n\n    event GetUniqueIdEvent(address indexed _uniqueId);\n\n    event CheckUniqueIdEvent(bool indexed _isgenerated);\n\n///////////////////////////////////EVENTS END////////////////////////////////////\n\n///////////////////////CONSTRUCTOR & DEFAULT FUNCTIONS///////////////////////////\n\n    constructor(){\n        Owner = msg.sender;\n    }\n\n    function GetUniqueId() {\n        // 'now' == Current timestamp\n        // 'msg.sender' == Ethereum address of contract creator\n        address uniqueId = address(sha256(msg.sender, now));\n        databoolmapping[uniqueId][0] = true;\n        GetUniqueIdEvent(uniqueId);\n    }\n\n////////////////////CONSTRUCTOR & DEFAULT FUNCTIONS END//////////////////////////\n\n\n///////////////////////////////////MODIFIERS/////////////////////////////////////\n\n    modifier onlyOwner(){\n        require(Owner == msg.sender);\n        _;\n    }\n\n/////////////////////////////////MODIFIERS END///////////////////////////////////\n\n////////////////////////////////IGM FUNCTIONS////////////////////////////////////\n\n\n    function SetImportPermitdata(address _uniqueId, string _name, string _postaladdress,\n    string _PAN_number, string _country, string _Aadhar_number) returns (string){\n        if(!databoolmapping[_uniqueId][0]){\n            CheckUniqueIdEvent(false);\n            throw;\n            return \"UID is false!\";\n        }\n\n        if(databoolmapping[_uniqueId][1]){\n            throw;\n            return \"Import Permit already created with this UID\";\n        }\n\n        if(bytes(datastringmapping[_uniqueId][0]).length == 0){datastringmapping[_uniqueId][0] = _name;}\n        if(bytes(datastringmapping[_uniqueId][1]).length == 0){datastringmapping[_uniqueId][1] = _postaladdress;}\n        if(bytes(datastringmapping[_uniqueId][2]).length == 0){datastringmapping[_uniqueId][2] = _PAN_number;}\n        if(bytes(datastringmapping[_uniqueId][3]).length == 0){datastringmapping[_uniqueId][3] = _country;}\n        if(bytes(datastringmapping[_uniqueId][4]).length == 0){datastringmapping[_uniqueId][4] = _Aadhar_number;}\n\n        datatimestampmapping[_uniqueId][0] = now;\n        databoolmapping[_uniqueId][1] = true;\n        CheckUniqueIdEvent(true);\n        return \"UID is true!\";\n    }\n\n    // ImportPermitgeneration_timestamp = 0; ImportPermitverefication_timestamp = 1;\n    // isgenerated = 0; isImportPermitcreated = 1; isImportPermitverified = 2;\n    // name = 0; address = 1; PAN_number = 2; country = 3; Aadhar_number = 4\n\n    function authorize_ImportPermit(address _address, string _name) onlyOwner returns(string) {\n        if(!ImportPermit_officials[_address].isauthorized){\n            ImportPermit_officials[_address].isauthorized = true;\n            ImportPermit_officials[_address].name = _name;\n            return \"ImportPermit_officials authorized\";\n        }else{\n            ImportPermit_officials[_address].isauthorized = false;\n            return \"ImportPermit_officials unauthorized\";\n        }\n    }\n\n    function sign_Import_Permit (address _uniqueId) returns (string){\n        if(!ImportPermit_officials[msg.sender].isauthorized){\n            throw;\n            return \"Person is not authorized\";\n        }\n        if(databoolmapping[_uniqueId][2]){\n            throw;\n            return \"Import Permit with this UID is already verified\";\n        }\n        if(!databoolmapping[_uniqueId][0]){\n            throw;\n            return \"UID is false!\";\n        }\n\n        dataofficialaddressmapping[_uniqueId][0] = msg.sender;\n        databoolmapping[_uniqueId][2] = true;\n        datatimestampmapping[_uniqueId][1] = now;\n        validitymapping[_uniqueId][0] = now + 2*365*86400;\n        return \"IGM form is signed by official\";\n    }\n\n///////////////////////////////IGM FUNCTIONS END//////////////////////////////////\n\n\n}\n\n\n\n",
  "sourcePath": "/Users/krishnakulkarni/Documents/MOVEHACK_2018/GIT/DISHA/contracts/Permits.sol",
  "compiler": {
    "name": "solc",
    "version": "0.4.24+commit.e67f0147.Emscripten.clang"
  },
  "schemaVersion": "2.0.1",
  "updatedAt": "2018-08-25T15:43:48.610Z"
}