{
  "contractName": "Shipping",
  "abi": [
    {
      "constant": true,
      "inputs": [
        {
          "name": "",
          "type": "address"
        },
        {
          "name": "",
          "type": "uint256"
        }
      ],
      "name": "datauintmapping",
      "outputs": [
        {
          "name": "",
          "type": "uint256"
        }
      ],
      "payable": false,
      "stateMutability": "view",
      "type": "function"
    },
    {
      "constant": true,
      "inputs": [
        {
          "name": "",
          "type": "address"
        }
      ],
      "name": "IGM_officials",
      "outputs": [
        {
          "name": "name",
          "type": "string"
        },
        {
          "name": "isauthorized",
          "type": "bool"
        }
      ],
      "payable": false,
      "stateMutability": "view",
      "type": "function"
    },
    {
      "constant": true,
      "inputs": [
        {
          "name": "",
          "type": "address"
        },
        {
          "name": "",
          "type": "uint256"
        }
      ],
      "name": "datastringmapping",
      "outputs": [
        {
          "name": "",
          "type": "string"
        }
      ],
      "payable": false,
      "stateMutability": "view",
      "type": "function"
    },
    {
      "constant": true,
      "inputs": [
        {
          "name": "",
          "type": "address"
        },
        {
          "name": "",
          "type": "uint256"
        }
      ],
      "name": "databoolmapping",
      "outputs": [
        {
          "name": "",
          "type": "bool"
        }
      ],
      "payable": false,
      "stateMutability": "view",
      "type": "function"
    },
    {
      "constant": true,
      "inputs": [
        {
          "name": "",
          "type": "address"
        },
        {
          "name": "",
          "type": "uint256"
        }
      ],
      "name": "dataofficialaddressmapping",
      "outputs": [
        {
          "name": "",
          "type": "address"
        }
      ],
      "payable": false,
      "stateMutability": "view",
      "type": "function"
    },
    {
      "constant": true,
      "inputs": [
        {
          "name": "",
          "type": "address"
        },
        {
          "name": "",
          "type": "uint256"
        }
      ],
      "name": "datatimestampmapping",
      "outputs": [
        {
          "name": "",
          "type": "uint256"
        }
      ],
      "payable": false,
      "stateMutability": "view",
      "type": "function"
    },
    {
      "inputs": [],
      "payable": false,
      "stateMutability": "nonpayable",
      "type": "constructor"
    },
    {
      "anonymous": false,
      "inputs": [
        {
          "indexed": true,
          "name": "_uniqueId",
          "type": "address"
        }
      ],
      "name": "GetUniqueIdEvent",
      "type": "event"
    },
    {
      "anonymous": false,
      "inputs": [
        {
          "indexed": true,
          "name": "_isgenerated",
          "type": "bool"
        }
      ],
      "name": "CheckUniqueIdEvent",
      "type": "event"
    },
    {
      "anonymous": false,
      "inputs": [
        {
          "indexed": true,
          "name": "_isIGMofficialverified",
          "type": "bool"
        }
      ],
      "name": "CheckIGMofficialverificationEvent",
      "type": "event"
    },
    {
      "constant": false,
      "inputs": [],
      "name": "GetUniqueId",
      "outputs": [],
      "payable": false,
      "stateMutability": "nonpayable",
      "type": "function"
    },
    {
      "constant": false,
      "inputs": [
        {
          "name": "_uniqueId",
          "type": "address"
        },
        {
          "name": "datauint",
          "type": "uint256[]"
        },
        {
          "name": "_nameofexporter",
          "type": "string"
        },
        {
          "name": "_commoditydescription",
          "type": "string"
        },
        {
          "name": "_country",
          "type": "string"
        },
        {
          "name": "_nameofoceancarrier",
          "type": "string"
        },
        {
          "name": "_nameofshipper",
          "type": "string"
        },
        {
          "name": "_vesselname",
          "type": "string"
        },
        {
          "name": "_placeofissue",
          "type": "string"
        },
        {
          "name": "_placeofdelivery",
          "type": "string"
        },
        {
          "name": "_portofloading",
          "type": "string"
        }
      ],
      "name": "SetIGMdata",
      "outputs": [
        {
          "name": "",
          "type": "string"
        }
      ],
      "payable": false,
      "stateMutability": "nonpayable",
      "type": "function"
    },
    {
      "constant": false,
      "inputs": [
        {
          "name": "_address",
          "type": "address"
        },
        {
          "name": "_name",
          "type": "string"
        }
      ],
      "name": "authorize_IGM",
      "outputs": [
        {
          "name": "",
          "type": "string"
        }
      ],
      "payable": false,
      "stateMutability": "nonpayable",
      "type": "function"
    },
    {
      "constant": false,
      "inputs": [
        {
          "name": "_uniqueId",
          "type": "address"
        }
      ],
      "name": "sign_IGM",
      "outputs": [
        {
          "name": "",
          "type": "string"
        }
      ],
      "payable": false,
      "stateMutability": "nonpayable",
      "type": "function"
    }
  ],
  "bytecode": "0x608060405234801561001057600080fd5b50336000806101000a81548173ffffffffffffffffffffffffffffffffffffffff021916908373ffffffffffffffffffffffffffffffffffffffff1602179055506119fd806100606000396000f3006080604052600436106100a4576000357c0100000000000000000000000000000000000000000000000000000000900463ffffffff16806361a12e89146100a95780637eb814d0146100e6578063807d00a714610123578063901b1cd3146101605780639ecfde7914610177578063ada7d147146101b5578063c2f14ad1146101f2578063e55967b51461022f578063e57c2b311461026c578063e6a43ec9146102a9575b600080fd5b3480156100b557600080fd5b506100d060048036036100cb919081019061144f565b6102e6565b6040516100dd9190611802565b60405180910390f35b3480156100f257600080fd5b5061010d600480360361010891908101906116ac565b6105b5565b60405161011a9190611854565b60405180910390f35b34801561012f57600080fd5b5061014a60048036036101459190810190611658565b6105dc565b6040516101579190611802565b60405180910390f35b34801561016c57600080fd5b50610175610818565b005b34801561018357600080fd5b5061019e6004803603610199919081019061144f565b610968565b6040516101ac929190611824565b60405180910390f35b3480156101c157600080fd5b506101dc60048036036101d791908101906116ac565b610a31565b6040516101e991906117e0565b60405180910390f35b3480156101fe57600080fd5b50610219600480360361021491908101906116ac565b610af0565b60405161022691906117c5565b60405180910390f35b34801561023b57600080fd5b5061025660048036036102519190810190611478565b610b28565b6040516102639190611802565b60405180910390f35b34801561027857600080fd5b50610293600480360361028e91908101906116ac565b611228565b6040516102a091906117aa565b60405180910390f35b3480156102b557600080fd5b506102d060048036036102cb91908101906116ac565b61126c565b6040516102dd9190611854565b60405180910390f35b6060600660003373ffffffffffffffffffffffffffffffffffffffff1673ffffffffffffffffffffffffffffffffffffffff16815260200190815260200160002060010160009054906101000a900460ff16151561037357600015157fbde38e19375145a9b2d349438921d838ca88cb60cc4eaf928117a1cc42fcd5c760405160405180910390a2600080fd5b600160008373ffffffffffffffffffffffffffffffffffffffff1673ffffffffffffffffffffffffffffffffffffffff1681526020019081526020016000206002601e811015156103c057fe5b602091828204019190069054906101000a900460ff16156103e057600080fd5b600160008373ffffffffffffffffffffffffffffffffffffffff1673ffffffffffffffffffffffffffffffffffffffff1681526020019081526020016000206000601e8110151561042d57fe5b602091828204019190069054906101000a900460ff16151561044e57600080fd5b33600360008473ffffffffffffffffffffffffffffffffffffffff1673ffffffffffffffffffffffffffffffffffffffff168152602001908152602001600020600060148110151561049c57fe5b0160006101000a81548173ffffffffffffffffffffffffffffffffffffffff021916908373ffffffffffffffffffffffffffffffffffffffff160217905550600115157fbde38e19375145a9b2d349438921d838ca88cb60cc4eaf928117a1cc42fcd5c760405160405180910390a260018060008473ffffffffffffffffffffffffffffffffffffffff1673ffffffffffffffffffffffffffffffffffffffff1681526020019081526020016000206002601e8110151561055957fe5b602091828204019190066101000a81548160ff0219169083151502179055506040805190810160405280601e81526020017f49474d20666f726d206973207369676e6564206279206f6666696369616c00008152509050919050565b6005602052816000526040600020816028811015156105d057fe5b01600091509150505481565b60603373ffffffffffffffffffffffffffffffffffffffff166000809054906101000a900473ffffffffffffffffffffffffffffffffffffffff1673ffffffffffffffffffffffffffffffffffffffff1614151561063957600080fd5b600660008473ffffffffffffffffffffffffffffffffffffffff1673ffffffffffffffffffffffffffffffffffffffff16815260200190815260200160002060010160009054906101000a900460ff16151561077e576001600660008573ffffffffffffffffffffffffffffffffffffffff1673ffffffffffffffffffffffffffffffffffffffff16815260200190815260200160002060010160006101000a81548160ff02191690831515021790555081600660008573ffffffffffffffffffffffffffffffffffffffff1673ffffffffffffffffffffffffffffffffffffffff1681526020019081526020016000206000019080519060200190610740929190611293565b506040805190810160405280601781526020017f49474d206f6666696369616c20617574686f72697a65640000000000000000008152509050610812565b6000600660008573ffffffffffffffffffffffffffffffffffffffff1673ffffffffffffffffffffffffffffffffffffffff16815260200190815260200160002060010160006101000a81548160ff0219169083151502179055506040805190810160405280601981526020017f49474d206f6666696369616c20756e617574686f72697a65640000000000000081525090505b92915050565b600060023342604051808373ffffffffffffffffffffffffffffffffffffffff1673ffffffffffffffffffffffffffffffffffffffff166c01000000000000000000000000028152601401828152602001925050506020604051808303816000865af115801561088c573d6000803e3d6000fd5b5050506040513d601f19601f820116820180604052506108af91908101906116e8565b60019004905060018060008373ffffffffffffffffffffffffffffffffffffffff1673ffffffffffffffffffffffffffffffffffffffff1681526020019081526020016000206000601e8110151561090357fe5b602091828204019190066101000a81548160ff0219169083151502179055508073ffffffffffffffffffffffffffffffffffffffff167fb05e7facb1893c2f6874964db9b1738601724af978281901c43bb184a37a424d60405160405180910390a250565b6006602052806000526040600020600091509050806000018054600181600116156101000203166002900480601f016020809104026020016040519081016040528092919081815260200182805460018160011615610100020316600290048015610a145780601f106109e957610100808354040283529160200191610a14565b820191906000526020600020905b8154815290600101906020018083116109f757829003601f168201915b5050505050908060010160009054906101000a900460ff16905082565b600460205281600052604060002081602881101515610a4c57fe5b01600091509150508054600181600116156101000203166002900480601f016020809104026020016040519081016040528092919081815260200182805460018160011615610100020316600290048015610ae85780601f10610abd57610100808354040283529160200191610ae8565b820191906000526020600020905b815481529060010190602001808311610acb57829003601f168201915b505050505081565b600160205281600052604060002081601e81101515610b0b57fe5b60209182820401919006915091509054906101000a900460ff1681565b6060600160008d73ffffffffffffffffffffffffffffffffffffffff1673ffffffffffffffffffffffffffffffffffffffff1681526020019081526020016000206000601e81101515610b7757fe5b602091828204019190069054906101000a900460ff161515610bc857600015157fbd70a8755b4f719e8e80bbb0fca601f2b000a3ce221c69b1bd5014fe1bfd747060405160405180910390a2600080fd5b600160008d73ffffffffffffffffffffffffffffffffffffffff1673ffffffffffffffffffffffffffffffffffffffff1681526020019081526020016000206001601e81101515610c1557fe5b602091828204019190069054906101000a900460ff1615610c3557600080fd5b8a6000815181101515610c4457fe5b90602001906020020151600560008e73ffffffffffffffffffffffffffffffffffffffff1673ffffffffffffffffffffffffffffffffffffffff1681526020019081526020016000206000602881101515610c9b57fe5b01819055508a6001815181101515610caf57fe5b90602001906020020151600560008e73ffffffffffffffffffffffffffffffffffffffff1673ffffffffffffffffffffffffffffffffffffffff1681526020019081526020016000206001602881101515610d0657fe5b01819055508a6002815181101515610d1a57fe5b90602001906020020151600560008e73ffffffffffffffffffffffffffffffffffffffff1673ffffffffffffffffffffffffffffffffffffffff1681526020019081526020016000206002602881101515610d7157fe5b018190555089600460008e73ffffffffffffffffffffffffffffffffffffffff1673ffffffffffffffffffffffffffffffffffffffff1681526020019081526020016000206000602881101515610dc457fe5b019080519060200190610dd8929190611293565b5088600460008e73ffffffffffffffffffffffffffffffffffffffff1673ffffffffffffffffffffffffffffffffffffffff1681526020019081526020016000206001602881101515610e2757fe5b019080519060200190610e3b929190611293565b5087600460008e73ffffffffffffffffffffffffffffffffffffffff1673ffffffffffffffffffffffffffffffffffffffff1681526020019081526020016000206002602881101515610e8a57fe5b019080519060200190610e9e929190611293565b5086600460008e73ffffffffffffffffffffffffffffffffffffffff1673ffffffffffffffffffffffffffffffffffffffff1681526020019081526020016000206003602881101515610eed57fe5b019080519060200190610f01929190611293565b5085600460008e73ffffffffffffffffffffffffffffffffffffffff1673ffffffffffffffffffffffffffffffffffffffff1681526020019081526020016000206004602881101515610f5057fe5b019080519060200190610f64929190611293565b5084600460008e73ffffffffffffffffffffffffffffffffffffffff1673ffffffffffffffffffffffffffffffffffffffff1681526020019081526020016000206005602881101515610fb357fe5b019080519060200190610fc7929190611293565b5083600460008e73ffffffffffffffffffffffffffffffffffffffff1673ffffffffffffffffffffffffffffffffffffffff168152602001908152602001600020600660288110151561101657fe5b01908051906020019061102a929190611293565b5082600460008e73ffffffffffffffffffffffffffffffffffffffff1673ffffffffffffffffffffffffffffffffffffffff168152602001908152602001600020600760288110151561107957fe5b01908051906020019061108d929190611293565b5081600460008e73ffffffffffffffffffffffffffffffffffffffff1673ffffffffffffffffffffffffffffffffffffffff16815260200190815260200160002060086028811015156110dc57fe5b0190805190602001906110f0929190611293565b5042600260008e73ffffffffffffffffffffffffffffffffffffffff1673ffffffffffffffffffffffffffffffffffffffff168152602001908152602001600020600060148110151561113f57fe5b018190555060018060008e73ffffffffffffffffffffffffffffffffffffffff1673ffffffffffffffffffffffffffffffffffffffff1681526020019081526020016000206001601e8110151561119257fe5b602091828204019190066101000a81548160ff021916908315150217905550600115157fbd70a8755b4f719e8e80bbb0fca601f2b000a3ce221c69b1bd5014fe1bfd747060405160405180910390a26040805190810160405280600c81526020017f554944206973207472756521000000000000000000000000000000000000000081525090509b9a5050505050505050505050565b60036020528160005260406000208160148110151561124357fe5b016000915091509054906101000a900473ffffffffffffffffffffffffffffffffffffffff1681565b60026020528160005260406000208160148110151561128757fe5b01600091509150505481565b828054600181600116156101000203166002900490600052602060002090601f016020900481019282601f106112d457805160ff1916838001178555611302565b82800160010185558215611302579182015b828111156113015782518255916020019190600101906112e6565b5b50905061130f9190611313565b5090565b61133591905b80821115611331576000816000905550600101611319565b5090565b90565b6000611344823561193c565b905092915050565b600082601f830112151561135f57600080fd5b813561137261136d8261189c565b61186f565b9150818183526020840193506020810190508385602084028201111561139757600080fd5b60005b838110156113c757816113ad888261143b565b84526020840193506020830192505060018101905061139a565b5050505092915050565b60006113dd825161195c565b905092915050565b600082601f83011215156113f857600080fd5b813561140b611406826118c4565b61186f565b9150808252602083016020830185838301111561142757600080fd5b611432838284611970565b50505092915050565b60006114478235611966565b905092915050565b60006020828403121561146157600080fd5b600061146f84828501611338565b91505092915050565b60008060008060008060008060008060006101608c8e03121561149a57600080fd5b60006114a88e828f01611338565b9b505060208c013567ffffffffffffffff8111156114c557600080fd5b6114d18e828f0161134c565b9a505060408c013567ffffffffffffffff8111156114ee57600080fd5b6114fa8e828f016113e5565b99505060608c013567ffffffffffffffff81111561151757600080fd5b6115238e828f016113e5565b98505060808c013567ffffffffffffffff81111561154057600080fd5b61154c8e828f016113e5565b97505060a08c013567ffffffffffffffff81111561156957600080fd5b6115758e828f016113e5565b96505060c08c013567ffffffffffffffff81111561159257600080fd5b61159e8e828f016113e5565b95505060e08c013567ffffffffffffffff8111156115bb57600080fd5b6115c78e828f016113e5565b9450506101008c013567ffffffffffffffff8111156115e557600080fd5b6115f18e828f016113e5565b9350506101208c013567ffffffffffffffff81111561160f57600080fd5b61161b8e828f016113e5565b9250506101408c013567ffffffffffffffff81111561163957600080fd5b6116458e828f016113e5565b9150509295989b509295989b9093969950565b6000806040838503121561166b57600080fd5b600061167985828601611338565b925050602083013567ffffffffffffffff81111561169657600080fd5b6116a2858286016113e5565b9150509250929050565b600080604083850312156116bf57600080fd5b60006116cd85828601611338565b92505060206116de8582860161143b565b9150509250929050565b6000602082840312156116fa57600080fd5b6000611708848285016113d1565b91505092915050565b61171a81611906565b82525050565b61172981611926565b82525050565b600061173a826118fb565b80845261174e81602086016020860161197f565b611757816119b2565b602085010191505092915050565b6000611770826118f0565b80845261178481602086016020860161197f565b61178d816119b2565b602085010191505092915050565b6117a481611932565b82525050565b60006020820190506117bf6000830184611711565b92915050565b60006020820190506117da6000830184611720565b92915050565b600060208201905081810360008301526117fa8184611765565b905092915050565b6000602082019050818103600083015261181c818461172f565b905092915050565b6000604082019050818103600083015261183e8185611765565b905061184d6020830184611720565b9392505050565b6000602082019050611869600083018461179b565b92915050565b6000604051905081810181811067ffffffffffffffff8211171561189257600080fd5b8060405250919050565b600067ffffffffffffffff8211156118b357600080fd5b602082029050602081019050919050565b600067ffffffffffffffff8211156118db57600080fd5b601f19601f8301169050602081019050919050565b600081519050919050565b600081519050919050565b600073ffffffffffffffffffffffffffffffffffffffff82169050919050565b60008115159050919050565b6000819050919050565b600073ffffffffffffffffffffffffffffffffffffffff82169050919050565b6000819050919050565b6000819050919050565b82818337600083830152505050565b60005b8381101561199d578082015181840152602081019050611982565b838111156119ac576000848401525b50505050565b6000601f19601f83011690509190505600a265627a7a723058207336432a21c27bac70b42ffd94fe314ddffd3c58b08b2377cff4de1b5232ace46c6578706572696d656e74616cf50037",
  "source": "pragma solidity ^0.4.24;\npragma experimental ABIEncoderV2;\ncontract Shipping{\n\n///////////////////////////STRUCT, VARIABLES AND MAPPINGS///////////////////////\n\n    address Owner;\n\n    mapping (address => bool[30]) public databoolmapping;\n    // isgenerated =0; isIGMcreated = 1; isIGMverified = 2;\n    mapping (address => uint[20]) public datatimestampmapping;\n    // IGM_timestamp = 0;\n    mapping (address => address[20]) public dataofficialaddressmapping;\n    //IGM_official_address = 0;\n    mapping (address => string[40]) public datastringmapping;\n    // nameofexporter = 0; commoditydescription = 1; country = 2; nameofoceancarrier = 3\n    // nameofshipper = 4; vesselname = 5; placeofissue = 6; placeofdelivery = 7;\n    // portofloading = 8\n    mapping (address => uint[40]) public datauintmapping;\n    // billno = 0; weightofcargo = 1; containernumber = 2;\n\n    struct IGM_officialsStruct {\n        string name;\n        bool isauthorized;\n    }\n\n    mapping (address => IGM_officialsStruct) public IGM_officials;\n\n\n/////////////////////////STRUCT, VARIABLES AND MAPPINGS END//////////////////////\n\n//////////////////////////////////////EVENTS/////////////////////////////////////\n\n    event GetUniqueIdEvent(address indexed _uniqueId);\n\n    event CheckUniqueIdEvent(bool indexed _isgenerated);\n\n    event CheckIGMofficialverificationEvent(bool indexed _isIGMofficialverified);\n\n///////////////////////////////////EVENTS END////////////////////////////////////\n\n///////////////////////CONSTRUCTOR & DEFAULT FUNCTIONS///////////////////////////\n\n    constructor(){\n        Owner = msg.sender;\n    }\n\n    function GetUniqueId() {\n        // 'now' == Current timestamp\n        // 'msg.sender' == Ethereum address of contract creator\n        address uniqueId = address(sha256(msg.sender, now));\n        databoolmapping[uniqueId][0] = true;\n        GetUniqueIdEvent(uniqueId);\n    }\n\n////////////////////CONSTRUCTOR & DEFAULT FUNCTIONS END//////////////////////////\n\n\n///////////////////////////////////MODIFIERS/////////////////////////////////////\n\n    modifier onlyOwner(){\n        require(Owner == msg.sender);\n        _;\n    }\n\n/////////////////////////////////MODIFIERS END///////////////////////////////////\n\n////////////////////////////////IGM FUNCTIONS////////////////////////////////////\n\n\n\n   // address _uniqueId, uint _billno, string[] _nameofexporter,\n  //  string _commoditydescription, string _country, string _nameofcarrier,\n   // string _nameofshipper, string _vesselname, uint _weightofcargo, uint _containernumner,\n   // string _placeofissue, string _placeofdelivery, string _portofloading\n\n        // nameofexporter = 0; commoditydescription = 1; country = 2; nameofoceancarrier = 3\n    // nameofshipper = 4; vesselname = 5; placeofissue = 6; placeofdelivery = 7;\n    // portofloading = 8\n    // billno = 0; weightofcargo = 1; containernumber = 2;\n    function SetIGMdata(address _uniqueId, uint[] datauint, string _nameofexporter,\n    string _commoditydescription, string _country, string _nameofoceancarrier,\n    string _nameofshipper, string _vesselname, string _placeofissue, string _placeofdelivery,\n    string _portofloading) returns (string){\n        if(!databoolmapping[_uniqueId][0]){\n            CheckUniqueIdEvent(false);\n            throw;\n            return \"UID is false!\";\n        }\n\n        if(databoolmapping[_uniqueId][1]){\n            throw;\n            return \"IGM already created with this UID\";\n        }\n        datauintmapping[_uniqueId][0] = datauint[0];\n        datauintmapping[_uniqueId][1] = datauint[1];\n        datauintmapping[_uniqueId][2] = datauint[2];\n\n        datastringmapping[_uniqueId][0] = _nameofexporter;\n        datastringmapping[_uniqueId][1] = _commoditydescription;\n        datastringmapping[_uniqueId][2] = _country;\n        datastringmapping[_uniqueId][3] = _nameofoceancarrier;\n        datastringmapping[_uniqueId][4] = _nameofshipper;\n        datastringmapping[_uniqueId][5] = _vesselname;\n        datastringmapping[_uniqueId][6] = _placeofissue;\n        datastringmapping[_uniqueId][7] = _placeofdelivery;\n        datastringmapping[_uniqueId][8] = _portofloading;\n\n        datatimestampmapping[_uniqueId][0] = now;\n        databoolmapping[_uniqueId][1] = true;\n        CheckUniqueIdEvent(true);\n        return \"UID is true!\";\n    }\n\n    function authorize_IGM(address _address, string _name) onlyOwner returns(string) {\n        if(!IGM_officials[_address].isauthorized){\n            IGM_officials[_address].isauthorized = true;\n            IGM_officials[_address].name = _name;\n            return \"IGM official authorized\";\n        }else{\n            IGM_officials[_address].isauthorized = false;\n            return \"IGM official unauthorized\";\n        }\n    }\n\n    function sign_IGM (address _uniqueId) returns (string){\n        if(!IGM_officials[msg.sender].isauthorized){\n            CheckIGMofficialverificationEvent(false);\n            throw;\n            return \"Person is not authorized\";\n        }\n        if(databoolmapping[_uniqueId][2]){\n            throw;\n            return \"IGM with this UID is already verified\";\n        }\n        if(!databoolmapping[_uniqueId][0]){\n            throw;\n            return \"UID is false!\";\n        }\n\n        dataofficialaddressmapping[_uniqueId][0] = msg.sender;\n        CheckIGMofficialverificationEvent(true);\n        databoolmapping[_uniqueId][2] = true;\n        return \"IGM form is signed by official\";\n    }\n\n///////////////////////////////IGM FUNCTIONS END//////////////////////////////////\n\n}\n\n\n\n",
  "sourcePath": "/Users/krishnakulkarni/Documents/MOVEHACK_2018/GIT/DISHA/contracts/Shipping.sol",
  "compiler": {
    "name": "solc",
    "version": "0.4.24+commit.e67f0147.Emscripten.clang"
  },
  "schemaVersion": "2.0.1",
  "updatedAt": "2018-08-12T14:44:29.973Z"
}