{
  "contractName": "Shipping",
  "abi": [
    {
      "constant": true,
      "inputs": [
        {
          "name": "",
          "type": "address"
        }
      ],
      "name": "customs_officials",
      "outputs": [
        {
          "name": "name",
          "type": "string"
        },
        {
          "name": "isauthorized",
          "type": "bool"
        }
      ],
      "payable": false,
      "stateMutability": "view",
      "type": "function"
    },
    {
      "constant": true,
      "inputs": [
        {
          "name": "",
          "type": "address"
        }
      ],
      "name": "BillofEntry_officials",
      "outputs": [
        {
          "name": "name",
          "type": "string"
        },
        {
          "name": "isauthorized",
          "type": "bool"
        }
      ],
      "payable": false,
      "stateMutability": "view",
      "type": "function"
    },
    {
      "constant": true,
      "inputs": [
        {
          "name": "",
          "type": "address"
        }
      ],
      "name": "shed_officials",
      "outputs": [
        {
          "name": "name",
          "type": "string"
        },
        {
          "name": "isauthorized",
          "type": "bool"
        }
      ],
      "payable": false,
      "stateMutability": "view",
      "type": "function"
    },
    {
      "constant": true,
      "inputs": [
        {
          "name": "",
          "type": "address"
        },
        {
          "name": "",
          "type": "uint256"
        }
      ],
      "name": "datauintmapping",
      "outputs": [
        {
          "name": "",
          "type": "uint256"
        }
      ],
      "payable": false,
      "stateMutability": "view",
      "type": "function"
    },
    {
      "constant": true,
      "inputs": [
        {
          "name": "",
          "type": "address"
        }
      ],
      "name": "IGM_officials",
      "outputs": [
        {
          "name": "name",
          "type": "string"
        },
        {
          "name": "isauthorized",
          "type": "bool"
        }
      ],
      "payable": false,
      "stateMutability": "view",
      "type": "function"
    },
    {
      "constant": true,
      "inputs": [
        {
          "name": "",
          "type": "address"
        },
        {
          "name": "",
          "type": "uint256"
        }
      ],
      "name": "datastringmapping",
      "outputs": [
        {
          "name": "",
          "type": "string"
        }
      ],
      "payable": false,
      "stateMutability": "view",
      "type": "function"
    },
    {
      "constant": true,
      "inputs": [
        {
          "name": "",
          "type": "address"
        },
        {
          "name": "",
          "type": "uint256"
        }
      ],
      "name": "databoolmapping",
      "outputs": [
        {
          "name": "",
          "type": "bool"
        }
      ],
      "payable": false,
      "stateMutability": "view",
      "type": "function"
    },
    {
      "constant": true,
      "inputs": [
        {
          "name": "",
          "type": "address"
        }
      ],
      "name": "BillofLading_officials",
      "outputs": [
        {
          "name": "name",
          "type": "string"
        },
        {
          "name": "isauthorized",
          "type": "bool"
        }
      ],
      "payable": false,
      "stateMutability": "view",
      "type": "function"
    },
    {
      "constant": true,
      "inputs": [
        {
          "name": "",
          "type": "address"
        },
        {
          "name": "",
          "type": "uint256"
        }
      ],
      "name": "dataofficialaddressmapping",
      "outputs": [
        {
          "name": "",
          "type": "address"
        }
      ],
      "payable": false,
      "stateMutability": "view",
      "type": "function"
    },
    {
      "constant": true,
      "inputs": [
        {
          "name": "",
          "type": "address"
        },
        {
          "name": "",
          "type": "uint256"
        }
      ],
      "name": "datatimestampmapping",
      "outputs": [
        {
          "name": "",
          "type": "uint256"
        }
      ],
      "payable": false,
      "stateMutability": "view",
      "type": "function"
    },
    {
      "inputs": [],
      "payable": false,
      "stateMutability": "nonpayable",
      "type": "constructor"
    },
    {
      "anonymous": false,
      "inputs": [
        {
          "indexed": true,
          "name": "_uniqueId",
          "type": "address"
        }
      ],
      "name": "GetUniqueIdEvent",
      "type": "event"
    },
    {
      "anonymous": false,
      "inputs": [
        {
          "indexed": true,
          "name": "_isgenerated",
          "type": "bool"
        }
      ],
      "name": "CheckUniqueIdEvent",
      "type": "event"
    },
    {
      "constant": false,
      "inputs": [],
      "name": "GetUniqueId",
      "outputs": [],
      "payable": false,
      "stateMutability": "nonpayable",
      "type": "function"
    },
    {
      "constant": false,
      "inputs": [
        {
          "name": "_uniqueId",
          "type": "address"
        },
        {
          "name": "datauint",
          "type": "uint256[]"
        },
        {
          "name": "_nameofexporter",
          "type": "string"
        },
        {
          "name": "_commoditydescription",
          "type": "string"
        },
        {
          "name": "_country",
          "type": "string"
        },
        {
          "name": "_nameofoceancarrier",
          "type": "string"
        },
        {
          "name": "_nameofshipper",
          "type": "string"
        },
        {
          "name": "_vesselname",
          "type": "string"
        },
        {
          "name": "_placeofissue",
          "type": "string"
        },
        {
          "name": "_placeofdelivery",
          "type": "string"
        },
        {
          "name": "_portofloading",
          "type": "string"
        }
      ],
      "name": "SetIGMdata",
      "outputs": [
        {
          "name": "",
          "type": "string"
        }
      ],
      "payable": false,
      "stateMutability": "nonpayable",
      "type": "function"
    },
    {
      "constant": false,
      "inputs": [
        {
          "name": "_address",
          "type": "address"
        },
        {
          "name": "_name",
          "type": "string"
        }
      ],
      "name": "authorize_IGM",
      "outputs": [
        {
          "name": "",
          "type": "string"
        }
      ],
      "payable": false,
      "stateMutability": "nonpayable",
      "type": "function"
    },
    {
      "constant": false,
      "inputs": [
        {
          "name": "_uniqueId",
          "type": "address"
        }
      ],
      "name": "sign_IGM",
      "outputs": [
        {
          "name": "",
          "type": "string"
        }
      ],
      "payable": false,
      "stateMutability": "nonpayable",
      "type": "function"
    },
    {
      "constant": false,
      "inputs": [
        {
          "name": "_uniqueId",
          "type": "address"
        },
        {
          "name": "datauint",
          "type": "uint256[]"
        },
        {
          "name": "_nameofimporter",
          "type": "string"
        },
        {
          "name": "_commoditydescription",
          "type": "string"
        },
        {
          "name": "_country",
          "type": "string"
        },
        {
          "name": "_nameofoceancarrier",
          "type": "string"
        },
        {
          "name": "_vesselname",
          "type": "string"
        }
      ],
      "name": "SetBillofEntrydata",
      "outputs": [
        {
          "name": "",
          "type": "string"
        }
      ],
      "payable": false,
      "stateMutability": "nonpayable",
      "type": "function"
    },
    {
      "constant": false,
      "inputs": [
        {
          "name": "_address",
          "type": "address"
        },
        {
          "name": "_name",
          "type": "string"
        }
      ],
      "name": "authorize_Bill_of_Entry",
      "outputs": [
        {
          "name": "",
          "type": "string"
        }
      ],
      "payable": false,
      "stateMutability": "nonpayable",
      "type": "function"
    },
    {
      "constant": false,
      "inputs": [
        {
          "name": "_uniqueId",
          "type": "address"
        }
      ],
      "name": "sign_Bill_of_Entry",
      "outputs": [
        {
          "name": "",
          "type": "string"
        }
      ],
      "payable": false,
      "stateMutability": "nonpayable",
      "type": "function"
    }
  ],
  "bytecode": "0x608060405234801561001057600080fd5b50336000806101000a81548173ffffffffffffffffffffffffffffffffffffffff021916908373ffffffffffffffffffffffffffffffffffffffff160217905550613484806100606000396000f3006080604052600436106100f1576000357c0100000000000000000000000000000000000000000000000000000000900463ffffffff1680631a8d4460146100f65780632264deda14610134578063324153e314610172578063497f9713146101b057806361a12e89146101ed5780637eb814d01461022a578063807d00a714610267578063901b1cd3146102a45780639ecfde79146102bb578063a13045b4146102f9578063ada7d14714610336578063b4c4af2514610373578063c2f14ad1146103b0578063c5d5c0a0146103ed578063e55967b51461042b578063e57c2b3114610468578063e6a43ec9146104a5575b600080fd5b34801561010257600080fd5b5061011d60048036036101189190810190612da8565b6104e2565b60405161012b9291906132ab565b60405180910390f35b34801561014057600080fd5b5061015b60048036036101569190810190612da8565b6105ab565b6040516101699291906132ab565b60405180910390f35b34801561017e57600080fd5b5061019960048036036101949190810190612da8565b610674565b6040516101a79291906132ab565b60405180910390f35b3480156101bc57600080fd5b506101d760048036036101d29190810190612da8565b61073d565b6040516101e49190613289565b60405180910390f35b3480156101f957600080fd5b50610214600480360361020f9190810190612da8565b610a26565b6040516102219190613289565b60405180910390f35b34801561023657600080fd5b50610251600480360361024c9190810190613133565b610ce8565b60405161025e91906132db565b60405180910390f35b34801561027357600080fd5b5061028e600480360361028991908101906130df565b610d0f565b60405161029b9190613289565b60405180910390f35b3480156102b057600080fd5b506102b9610f4b565b005b3480156102c757600080fd5b506102e260048036036102dd9190810190612da8565b61109b565b6040516102f09291906132ab565b60405180910390f35b34801561030557600080fd5b50610320600480360361031b9190810190612dd1565b611164565b60405161032d9190613289565b60405180910390f35b34801561034257600080fd5b5061035d60048036036103589190810190613133565b611b8a565b60405161036a9190613267565b60405180910390f35b34801561037f57600080fd5b5061039a600480360361039591908101906130df565b611c49565b6040516103a79190613289565b60405180910390f35b3480156103bc57600080fd5b506103d760048036036103d29190810190613133565b611eac565b6040516103e4919061324c565b60405180910390f35b3480156103f957600080fd5b50610414600480360361040f9190810190612da8565b611ee4565b6040516104229291906132ab565b60405180910390f35b34801561043757600080fd5b50610452600480360361044d9190810190612eff565b611fad565b60405161045f9190613289565b60405180910390f35b34801561047457600080fd5b5061048f600480360361048a9190810190613133565b612b81565b60405161049c9190613231565b60405180910390f35b3480156104b157600080fd5b506104cc60048036036104c79190810190613133565b612bc5565b6040516104d991906132db565b60405180910390f35b6009602052806000526040600020600091509050806000018054600181600116156101000203166002900480601f01602080910402602001604051908101604052809291908181526020018280546001816001161561010002031660029004801561058e5780601f106105635761010080835404028352916020019161058e565b820191906000526020600020905b81548152906001019060200180831161057157829003601f168201915b5050505050908060010160009054906101000a900460ff16905082565b6007602052806000526040600020600091509050806000018054600181600116156101000203166002900480601f0160208091040260200160405190810160405280929190818152602001828054600181600116156101000203166002900480156106575780601f1061062c57610100808354040283529160200191610657565b820191906000526020600020905b81548152906001019060200180831161063a57829003601f168201915b5050505050908060010160009054906101000a900460ff16905082565b600a602052806000526040600020600091509050806000018054600181600116156101000203166002900480601f0160208091040260200160405190810160405280929190818152602001828054600181600116156101000203166002900480156107205780601f106106f557610100808354040283529160200191610720565b820191906000526020600020905b81548152906001019060200180831161070357829003601f168201915b5050505050908060010160009054906101000a900460ff16905082565b6060600760003373ffffffffffffffffffffffffffffffffffffffff1673ffffffffffffffffffffffffffffffffffffffff16815260200190815260200160002060010160009054906101000a900460ff16151561079a57600080fd5b600160008373ffffffffffffffffffffffffffffffffffffffff1673ffffffffffffffffffffffffffffffffffffffff1681526020019081526020016000206004601e811015156107e757fe5b602091828204019190069054906101000a900460ff161561080757600080fd5b600160008373ffffffffffffffffffffffffffffffffffffffff1673ffffffffffffffffffffffffffffffffffffffff1681526020019081526020016000206000601e8110151561085457fe5b602091828204019190069054906101000a900460ff16151561087557600080fd5b33600360008473ffffffffffffffffffffffffffffffffffffffff1673ffffffffffffffffffffffffffffffffffffffff16815260200190815260200160002060016014811015156108c357fe5b0160006101000a81548173ffffffffffffffffffffffffffffffffffffffff021916908373ffffffffffffffffffffffffffffffffffffffff16021790555060018060008473ffffffffffffffffffffffffffffffffffffffff1673ffffffffffffffffffffffffffffffffffffffff1681526020019081526020016000206004601e8110151561095057fe5b602091828204019190066101000a81548160ff02191690831515021790555042600260008473ffffffffffffffffffffffffffffffffffffffff1673ffffffffffffffffffffffffffffffffffffffff16815260200190815260200160002060036014811015156109bd57fe5b0181905550606060405190810160405280602681526020017f42696c6c6f66456e74727920666f726d206973207369676e6564206279206f6681526020017f66696369616c00000000000000000000000000000000000000000000000000008152509050919050565b6060600660003373ffffffffffffffffffffffffffffffffffffffff1673ffffffffffffffffffffffffffffffffffffffff16815260200190815260200160002060010160009054906101000a900460ff161515610a8357600080fd5b600160008373ffffffffffffffffffffffffffffffffffffffff1673ffffffffffffffffffffffffffffffffffffffff1681526020019081526020016000206002601e81101515610ad057fe5b602091828204019190069054906101000a900460ff1615610af057600080fd5b600160008373ffffffffffffffffffffffffffffffffffffffff1673ffffffffffffffffffffffffffffffffffffffff1681526020019081526020016000206000601e81101515610b3d57fe5b602091828204019190069054906101000a900460ff161515610b5e57600080fd5b33600360008473ffffffffffffffffffffffffffffffffffffffff1673ffffffffffffffffffffffffffffffffffffffff1681526020019081526020016000206000601481101515610bac57fe5b0160006101000a81548173ffffffffffffffffffffffffffffffffffffffff021916908373ffffffffffffffffffffffffffffffffffffffff16021790555060018060008473ffffffffffffffffffffffffffffffffffffffff1673ffffffffffffffffffffffffffffffffffffffff1681526020019081526020016000206002601e81101515610c3957fe5b602091828204019190066101000a81548160ff02191690831515021790555042600260008473ffffffffffffffffffffffffffffffffffffffff1673ffffffffffffffffffffffffffffffffffffffff1681526020019081526020016000206001601481101515610ca657fe5b01819055506040805190810160405280601e81526020017f49474d20666f726d206973207369676e6564206279206f6666696369616c00008152509050919050565b600560205281600052604060002081602881101515610d0357fe5b01600091509150505481565b60603373ffffffffffffffffffffffffffffffffffffffff166000809054906101000a900473ffffffffffffffffffffffffffffffffffffffff1673ffffffffffffffffffffffffffffffffffffffff16141515610d6c57600080fd5b600660008473ffffffffffffffffffffffffffffffffffffffff1673ffffffffffffffffffffffffffffffffffffffff16815260200190815260200160002060010160009054906101000a900460ff161515610eb1576001600660008573ffffffffffffffffffffffffffffffffffffffff1673ffffffffffffffffffffffffffffffffffffffff16815260200190815260200160002060010160006101000a81548160ff02191690831515021790555081600660008573ffffffffffffffffffffffffffffffffffffffff1673ffffffffffffffffffffffffffffffffffffffff1681526020019081526020016000206000019080519060200190610e73929190612bec565b506040805190810160405280601781526020017f49474d206f6666696369616c20617574686f72697a65640000000000000000008152509050610f45565b6000600660008573ffffffffffffffffffffffffffffffffffffffff1673ffffffffffffffffffffffffffffffffffffffff16815260200190815260200160002060010160006101000a81548160ff0219169083151502179055506040805190810160405280601981526020017f49474d206f6666696369616c20756e617574686f72697a65640000000000000081525090505b92915050565b600060023342604051808373ffffffffffffffffffffffffffffffffffffffff1673ffffffffffffffffffffffffffffffffffffffff166c01000000000000000000000000028152601401828152602001925050506020604051808303816000865af1158015610fbf573d6000803e3d6000fd5b5050506040513d601f19601f82011682018060405250610fe2919081019061316f565b60019004905060018060008373ffffffffffffffffffffffffffffffffffffffff1673ffffffffffffffffffffffffffffffffffffffff1681526020019081526020016000206000601e8110151561103657fe5b602091828204019190066101000a81548160ff0219169083151502179055508073ffffffffffffffffffffffffffffffffffffffff167fb05e7facb1893c2f6874964db9b1738601724af978281901c43bb184a37a424d60405160405180910390a250565b6006602052806000526040600020600091509050806000018054600181600116156101000203166002900480601f0160208091040260200160405190810160405280929190818152602001828054600181600116156101000203166002900480156111475780601f1061111c57610100808354040283529160200191611147565b820191906000526020600020905b81548152906001019060200180831161112a57829003601f168201915b5050505050908060010160009054906101000a900460ff16905082565b6060600160008973ffffffffffffffffffffffffffffffffffffffff1673ffffffffffffffffffffffffffffffffffffffff1681526020019081526020016000206000601e811015156111b357fe5b602091828204019190069054906101000a900460ff16151561120457600015157fbd70a8755b4f719e8e80bbb0fca601f2b000a3ce221c69b1bd5014fe1bfd747060405160405180910390a2600080fd5b600160008973ffffffffffffffffffffffffffffffffffffffff1673ffffffffffffffffffffffffffffffffffffffff1681526020019081526020016000206003601e8110151561125157fe5b602091828204019190069054906101000a900460ff161561127157600080fd5b6000600560008a73ffffffffffffffffffffffffffffffffffffffff1673ffffffffffffffffffffffffffffffffffffffff16815260200190815260200160002060016028811015156112c057fe5b01541415611334578660008151811015156112d757fe5b90602001906020020151600560008a73ffffffffffffffffffffffffffffffffffffffff1673ffffffffffffffffffffffffffffffffffffffff168152602001908152602001600020600160288110151561132e57fe5b01819055505b6000600560008a73ffffffffffffffffffffffffffffffffffffffff1673ffffffffffffffffffffffffffffffffffffffff168152602001908152602001600020600360288110151561138357fe5b015414156113f75786600181518110151561139a57fe5b90602001906020020151600560008a73ffffffffffffffffffffffffffffffffffffffff1673ffffffffffffffffffffffffffffffffffffffff16815260200190815260200160002060036028811015156113f157fe5b01819055505b6000600560008a73ffffffffffffffffffffffffffffffffffffffff1673ffffffffffffffffffffffffffffffffffffffff168152602001908152602001600020600460288110151561144657fe5b015414156114ba5786600281518110151561145d57fe5b90602001906020020151600560008a73ffffffffffffffffffffffffffffffffffffffff1673ffffffffffffffffffffffffffffffffffffffff16815260200190815260200160002060046028811015156114b457fe5b01819055505b6000600560008a73ffffffffffffffffffffffffffffffffffffffff1673ffffffffffffffffffffffffffffffffffffffff168152602001908152602001600020600560288110151561150957fe5b0154141561157d5786600381518110151561152057fe5b90602001906020020151600560008a73ffffffffffffffffffffffffffffffffffffffff1673ffffffffffffffffffffffffffffffffffffffff168152602001908152602001600020600560288110151561157757fe5b01819055505b6000600460008a73ffffffffffffffffffffffffffffffffffffffff1673ffffffffffffffffffffffffffffffffffffffff16815260200190815260200160002060096028811015156115cc57fe5b01805460018160011615610100020316600290049050141561164c5785600460008a73ffffffffffffffffffffffffffffffffffffffff1673ffffffffffffffffffffffffffffffffffffffff168152602001908152602001600020600960288110151561163657fe5b01908051906020019061164a929190612bec565b505b6000600460008a73ffffffffffffffffffffffffffffffffffffffff1673ffffffffffffffffffffffffffffffffffffffff168152602001908152602001600020600160288110151561169b57fe5b01805460018160011615610100020316600290049050141561171b5784600460008a73ffffffffffffffffffffffffffffffffffffffff1673ffffffffffffffffffffffffffffffffffffffff168152602001908152602001600020600160288110151561170557fe5b019080519060200190611719929190612bec565b505b6000600460008a73ffffffffffffffffffffffffffffffffffffffff1673ffffffffffffffffffffffffffffffffffffffff168152602001908152602001600020600260288110151561176a57fe5b0180546001816001161561010002031660029004905014156117ea5783600460008a73ffffffffffffffffffffffffffffffffffffffff1673ffffffffffffffffffffffffffffffffffffffff16815260200190815260200160002060026028811015156117d457fe5b0190805190602001906117e8929190612bec565b505b6000600460008a73ffffffffffffffffffffffffffffffffffffffff1673ffffffffffffffffffffffffffffffffffffffff168152602001908152602001600020600360288110151561183957fe5b0180546001816001161561010002031660029004905014156118b95782600460008a73ffffffffffffffffffffffffffffffffffffffff1673ffffffffffffffffffffffffffffffffffffffff16815260200190815260200160002060036028811015156118a357fe5b0190805190602001906118b7929190612bec565b505b6000600460008a73ffffffffffffffffffffffffffffffffffffffff1673ffffffffffffffffffffffffffffffffffffffff168152602001908152602001600020600560288110151561190857fe5b0180546001816001161561010002031660029004905014156119885781600460008a73ffffffffffffffffffffffffffffffffffffffff1673ffffffffffffffffffffffffffffffffffffffff168152602001908152602001600020600560288110151561197257fe5b019080519060200190611986929190612bec565b505b6000600460008a73ffffffffffffffffffffffffffffffffffffffff1673ffffffffffffffffffffffffffffffffffffffff16815260200190815260200160002060056028811015156119d757fe5b018054600181600116156101000203166002900490501415611a575781600460008a73ffffffffffffffffffffffffffffffffffffffff1673ffffffffffffffffffffffffffffffffffffffff1681526020019081526020016000206005602881101515611a4157fe5b019080519060200190611a55929190612bec565b505b42600260008a73ffffffffffffffffffffffffffffffffffffffff1673ffffffffffffffffffffffffffffffffffffffff1681526020019081526020016000206002601481101515611aa557fe5b018190555060018060008a73ffffffffffffffffffffffffffffffffffffffff1673ffffffffffffffffffffffffffffffffffffffff1681526020019081526020016000206003601e81101515611af857fe5b602091828204019190066101000a81548160ff021916908315150217905550600115157fbd70a8755b4f719e8e80bbb0fca601f2b000a3ce221c69b1bd5014fe1bfd747060405160405180910390a26040805190810160405280600c81526020017f55494420697320747275652100000000000000000000000000000000000000008152509050979650505050505050565b600460205281600052604060002081602881101515611ba557fe5b01600091509150508054600181600116156101000203166002900480601f016020809104026020016040519081016040528092919081815260200182805460018160011615610100020316600290048015611c415780601f10611c1657610100808354040283529160200191611c41565b820191906000526020600020905b815481529060010190602001808311611c2457829003601f168201915b505050505081565b60603373ffffffffffffffffffffffffffffffffffffffff166000809054906101000a900473ffffffffffffffffffffffffffffffffffffffff1673ffffffffffffffffffffffffffffffffffffffff16141515611ca657600080fd5b600760008473ffffffffffffffffffffffffffffffffffffffff1673ffffffffffffffffffffffffffffffffffffffff16815260200190815260200160002060010160009054906101000a900460ff161515611deb576001600760008573ffffffffffffffffffffffffffffffffffffffff1673ffffffffffffffffffffffffffffffffffffffff16815260200190815260200160002060010160006101000a81548160ff02191690831515021790555081600760008573ffffffffffffffffffffffffffffffffffffffff1673ffffffffffffffffffffffffffffffffffffffff1681526020019081526020016000206000019080519060200190611dad929190612bec565b506040805190810160405280601f81526020017f42696c6c6f66456e747279206f6666696369616c20617574686f72697a6564008152509050611ea6565b6000600760008573ffffffffffffffffffffffffffffffffffffffff1673ffffffffffffffffffffffffffffffffffffffff16815260200190815260200160002060010160006101000a81548160ff021916908315150217905550606060405190810160405280602181526020017f42696c6c6f66456e747279206f6666696369616c20756e617574686f72697a6581526020017f640000000000000000000000000000000000000000000000000000000000000081525090505b92915050565b600160205281600052604060002081601e81101515611ec757fe5b60209182820401919006915091509054906101000a900460ff1681565b6008602052806000526040600020600091509050806000018054600181600116156101000203166002900480601f016020809104026020016040519081016040528092919081815260200182805460018160011615610100020316600290048015611f905780601f10611f6557610100808354040283529160200191611f90565b820191906000526020600020905b815481529060010190602001808311611f7357829003601f168201915b5050505050908060010160009054906101000a900460ff16905082565b6060600160008d73ffffffffffffffffffffffffffffffffffffffff1673ffffffffffffffffffffffffffffffffffffffff1681526020019081526020016000206000601e81101515611ffc57fe5b602091828204019190069054906101000a900460ff16151561204d57600015157fbd70a8755b4f719e8e80bbb0fca601f2b000a3ce221c69b1bd5014fe1bfd747060405160405180910390a2600080fd5b600160008d73ffffffffffffffffffffffffffffffffffffffff1673ffffffffffffffffffffffffffffffffffffffff1681526020019081526020016000206001601e8110151561209a57fe5b602091828204019190069054906101000a900460ff16156120ba57600080fd5b6000600560008e73ffffffffffffffffffffffffffffffffffffffff1673ffffffffffffffffffffffffffffffffffffffff168152602001908152602001600020600060288110151561210957fe5b0154141561217d578a600081518110151561212057fe5b90602001906020020151600560008e73ffffffffffffffffffffffffffffffffffffffff1673ffffffffffffffffffffffffffffffffffffffff168152602001908152602001600020600060288110151561217757fe5b01819055505b6000600560008e73ffffffffffffffffffffffffffffffffffffffff1673ffffffffffffffffffffffffffffffffffffffff16815260200190815260200160002060016028811015156121cc57fe5b01541415612240578a60018151811015156121e357fe5b90602001906020020151600560008e73ffffffffffffffffffffffffffffffffffffffff1673ffffffffffffffffffffffffffffffffffffffff168152602001908152602001600020600160288110151561223a57fe5b01819055505b6000600560008e73ffffffffffffffffffffffffffffffffffffffff1673ffffffffffffffffffffffffffffffffffffffff168152602001908152602001600020600260288110151561228f57fe5b01541415612303578a60028151811015156122a657fe5b90602001906020020151600560008e73ffffffffffffffffffffffffffffffffffffffff1673ffffffffffffffffffffffffffffffffffffffff16815260200190815260200160002060026028811015156122fd57fe5b01819055505b6000600460008e73ffffffffffffffffffffffffffffffffffffffff1673ffffffffffffffffffffffffffffffffffffffff168152602001908152602001600020600060288110151561235257fe5b0180546001816001161561010002031660029004905014156123d25789600460008e73ffffffffffffffffffffffffffffffffffffffff1673ffffffffffffffffffffffffffffffffffffffff16815260200190815260200160002060006028811015156123bc57fe5b0190805190602001906123d0929190612bec565b505b6000600460008e73ffffffffffffffffffffffffffffffffffffffff1673ffffffffffffffffffffffffffffffffffffffff168152602001908152602001600020600160288110151561242157fe5b0180546001816001161561010002031660029004905014156124a15788600460008e73ffffffffffffffffffffffffffffffffffffffff1673ffffffffffffffffffffffffffffffffffffffff168152602001908152602001600020600160288110151561248b57fe5b01908051906020019061249f929190612bec565b505b6000600460008e73ffffffffffffffffffffffffffffffffffffffff1673ffffffffffffffffffffffffffffffffffffffff16815260200190815260200160002060026028811015156124f057fe5b0180546001816001161561010002031660029004905014156125705787600460008e73ffffffffffffffffffffffffffffffffffffffff1673ffffffffffffffffffffffffffffffffffffffff168152602001908152602001600020600260288110151561255a57fe5b01908051906020019061256e929190612bec565b505b6000600460008e73ffffffffffffffffffffffffffffffffffffffff1673ffffffffffffffffffffffffffffffffffffffff16815260200190815260200160002060036028811015156125bf57fe5b01805460018160011615610100020316600290049050141561263f5786600460008e73ffffffffffffffffffffffffffffffffffffffff1673ffffffffffffffffffffffffffffffffffffffff168152602001908152602001600020600360288110151561262957fe5b01908051906020019061263d929190612bec565b505b6000600460008e73ffffffffffffffffffffffffffffffffffffffff1673ffffffffffffffffffffffffffffffffffffffff168152602001908152602001600020600460288110151561268e57fe5b01805460018160011615610100020316600290049050141561270e5785600460008e73ffffffffffffffffffffffffffffffffffffffff1673ffffffffffffffffffffffffffffffffffffffff16815260200190815260200160002060046028811015156126f857fe5b01908051906020019061270c929190612bec565b505b6000600460008e73ffffffffffffffffffffffffffffffffffffffff1673ffffffffffffffffffffffffffffffffffffffff168152602001908152602001600020600560288110151561275d57fe5b0180546001816001161561010002031660029004905014156127dd5784600460008e73ffffffffffffffffffffffffffffffffffffffff1673ffffffffffffffffffffffffffffffffffffffff16815260200190815260200160002060056028811015156127c757fe5b0190805190602001906127db929190612bec565b505b6000600460008e73ffffffffffffffffffffffffffffffffffffffff1673ffffffffffffffffffffffffffffffffffffffff168152602001908152602001600020600660288110151561282c57fe5b0180546001816001161561010002031660029004905014156128ac5783600460008e73ffffffffffffffffffffffffffffffffffffffff1673ffffffffffffffffffffffffffffffffffffffff168152602001908152602001600020600660288110151561289657fe5b0190805190602001906128aa929190612bec565b505b6000600460008e73ffffffffffffffffffffffffffffffffffffffff1673ffffffffffffffffffffffffffffffffffffffff16815260200190815260200160002060076028811015156128fb57fe5b01805460018160011615610100020316600290049050141561297b5782600460008e73ffffffffffffffffffffffffffffffffffffffff1673ffffffffffffffffffffffffffffffffffffffff168152602001908152602001600020600760288110151561296557fe5b019080519060200190612979929190612bec565b505b6000600460008e73ffffffffffffffffffffffffffffffffffffffff1673ffffffffffffffffffffffffffffffffffffffff16815260200190815260200160002060086028811015156129ca57fe5b018054600181600116156101000203166002900490501415612a4a5781600460008e73ffffffffffffffffffffffffffffffffffffffff1673ffffffffffffffffffffffffffffffffffffffff1681526020019081526020016000206008602881101515612a3457fe5b019080519060200190612a48929190612bec565b505b42600260008e73ffffffffffffffffffffffffffffffffffffffff1673ffffffffffffffffffffffffffffffffffffffff1681526020019081526020016000206000601481101515612a9857fe5b018190555060018060008e73ffffffffffffffffffffffffffffffffffffffff1673ffffffffffffffffffffffffffffffffffffffff1681526020019081526020016000206001601e81101515612aeb57fe5b602091828204019190066101000a81548160ff021916908315150217905550600115157fbd70a8755b4f719e8e80bbb0fca601f2b000a3ce221c69b1bd5014fe1bfd747060405160405180910390a26040805190810160405280600c81526020017f554944206973207472756521000000000000000000000000000000000000000081525090509b9a5050505050505050505050565b600360205281600052604060002081601481101515612b9c57fe5b016000915091509054906101000a900473ffffffffffffffffffffffffffffffffffffffff1681565b600260205281600052604060002081601481101515612be057fe5b01600091509150505481565b828054600181600116156101000203166002900490600052602060002090601f016020900481019282601f10612c2d57805160ff1916838001178555612c5b565b82800160010185558215612c5b579182015b82811115612c5a578251825591602001919060010190612c3f565b5b509050612c689190612c6c565b5090565b612c8e91905b80821115612c8a576000816000905550600101612c72565b5090565b90565b6000612c9d82356133c3565b905092915050565b600082601f8301121515612cb857600080fd5b8135612ccb612cc682613323565b6132f6565b91508181835260208401935060208101905083856020840282011115612cf057600080fd5b60005b83811015612d205781612d068882612d94565b845260208401935060208301925050600181019050612cf3565b5050505092915050565b6000612d3682516133e3565b905092915050565b600082601f8301121515612d5157600080fd5b8135612d64612d5f8261334b565b6132f6565b91508082526020830160208301858383011115612d8057600080fd5b612d8b8382846133f7565b50505092915050565b6000612da082356133ed565b905092915050565b600060208284031215612dba57600080fd5b6000612dc884828501612c91565b91505092915050565b600080600080600080600060e0888a031215612dec57600080fd5b6000612dfa8a828b01612c91565b975050602088013567ffffffffffffffff811115612e1757600080fd5b612e238a828b01612ca5565b965050604088013567ffffffffffffffff811115612e4057600080fd5b612e4c8a828b01612d3e565b955050606088013567ffffffffffffffff811115612e6957600080fd5b612e758a828b01612d3e565b945050608088013567ffffffffffffffff811115612e9257600080fd5b612e9e8a828b01612d3e565b93505060a088013567ffffffffffffffff811115612ebb57600080fd5b612ec78a828b01612d3e565b92505060c088013567ffffffffffffffff811115612ee457600080fd5b612ef08a828b01612d3e565b91505092959891949750929550565b60008060008060008060008060008060006101608c8e031215612f2157600080fd5b6000612f2f8e828f01612c91565b9b505060208c013567ffffffffffffffff811115612f4c57600080fd5b612f588e828f01612ca5565b9a505060408c013567ffffffffffffffff811115612f7557600080fd5b612f818e828f01612d3e565b99505060608c013567ffffffffffffffff811115612f9e57600080fd5b612faa8e828f01612d3e565b98505060808c013567ffffffffffffffff811115612fc757600080fd5b612fd38e828f01612d3e565b97505060a08c013567ffffffffffffffff811115612ff057600080fd5b612ffc8e828f01612d3e565b96505060c08c013567ffffffffffffffff81111561301957600080fd5b6130258e828f01612d3e565b95505060e08c013567ffffffffffffffff81111561304257600080fd5b61304e8e828f01612d3e565b9450506101008c013567ffffffffffffffff81111561306c57600080fd5b6130788e828f01612d3e565b9350506101208c013567ffffffffffffffff81111561309657600080fd5b6130a28e828f01612d3e565b9250506101408c013567ffffffffffffffff8111156130c057600080fd5b6130cc8e828f01612d3e565b9150509295989b509295989b9093969950565b600080604083850312156130f257600080fd5b600061310085828601612c91565b925050602083013567ffffffffffffffff81111561311d57600080fd5b61312985828601612d3e565b9150509250929050565b6000806040838503121561314657600080fd5b600061315485828601612c91565b925050602061316585828601612d94565b9150509250929050565b60006020828403121561318157600080fd5b600061318f84828501612d2a565b91505092915050565b6131a18161338d565b82525050565b6131b0816133ad565b82525050565b60006131c182613382565b8084526131d5816020860160208601613406565b6131de81613439565b602085010191505092915050565b60006131f782613377565b80845261320b816020860160208601613406565b61321481613439565b602085010191505092915050565b61322b816133b9565b82525050565b60006020820190506132466000830184613198565b92915050565b600060208201905061326160008301846131a7565b92915050565b6000602082019050818103600083015261328181846131ec565b905092915050565b600060208201905081810360008301526132a381846131b6565b905092915050565b600060408201905081810360008301526132c581856131ec565b90506132d460208301846131a7565b9392505050565b60006020820190506132f06000830184613222565b92915050565b6000604051905081810181811067ffffffffffffffff8211171561331957600080fd5b8060405250919050565b600067ffffffffffffffff82111561333a57600080fd5b602082029050602081019050919050565b600067ffffffffffffffff82111561336257600080fd5b601f19601f8301169050602081019050919050565b600081519050919050565b600081519050919050565b600073ffffffffffffffffffffffffffffffffffffffff82169050919050565b60008115159050919050565b6000819050919050565b600073ffffffffffffffffffffffffffffffffffffffff82169050919050565b6000819050919050565b6000819050919050565b82818337600083830152505050565b60005b83811015613424578082015181840152602081019050613409565b83811115613433576000848401525b50505050565b6000601f19601f83011690509190505600a265627a7a72305820bbac4d7322d4917eeb4b84e3f2521519b1ab5d8b7dcf7ab1097f9f0e6d727e5e6c6578706572696d656e74616cf50037",
  "source": "pragma solidity ^0.4.24;\npragma experimental ABIEncoderV2;\ncontract Shipping{\n\n///////////////////////////STRUCT, VARIABLES AND MAPPINGS///////////////////////\n\n    address Owner;\n\n    mapping (address => bool[30]) public databoolmapping;\n    // isgenerated =0; isIGMcreated = 1; isIGMverified = 2; isBillofEntrycreated = 3;\n    //isBillofEntryverified = 4\n    mapping (address => uint[20]) public datatimestampmapping;\n    // IGMgeneration_timestamp = 0; IGMverefication_timestamp = 1;\n    //BillofEntrygeneration_timestamp = 2; BillofEntryverification_timestamp = 3\n    mapping (address => address[20]) public dataofficialaddressmapping;\n    //IGM_official_address = 0; BillofEntry_official_address = 1;\n    mapping (address => string[40]) public datastringmapping;\n    // nameofexporter = 0; commoditydescription = 1; country = 2; nameofoceancarrier = 3\n    // nameofshipper = 4; vesselname = 5; placeofissue = 6; placeofdelivery = 7;\n    // portofloading = 8\n    mapping (address => uint[40]) public datauintmapping;\n    // billno = 0; weightofcargo = 1; containernumber = 2; custom_duty = 3; cha_code = 4; GST = 5;\n\n    struct IGM_officialsStruct {\n        string name;\n        bool isauthorized;\n    }\n\n    struct BillofEntry_officialsStruct {\n        string name;\n        bool isauthorized;\n    }\n\n    struct BillofLading_officialsStruct {\n        string name;\n        bool isauthorized;\n    }\n\n    struct customs_officialsStruct {\n        string name;\n        bool isauthorized;\n    }\n\n    struct shed_officialsStruct {\n        string name;\n        bool isauthorized;\n    }\n\n    mapping (address => IGM_officialsStruct) public IGM_officials;\n    mapping (address => BillofEntry_officialsStruct) public BillofEntry_officials;\n    mapping (address => BillofLading_officialsStruct) public BillofLading_officials;\n    mapping (address => customs_officialsStruct) public customs_officials;\n    mapping (address => shed_officialsStruct) public shed_officials;\n\n/////////////////////////STRUCT, VARIABLES AND MAPPINGS END//////////////////////\n\n//////////////////////////////////////EVENTS/////////////////////////////////////\n\n    event GetUniqueIdEvent(address indexed _uniqueId);\n\n    event CheckUniqueIdEvent(bool indexed _isgenerated);\n\n///////////////////////////////////EVENTS END////////////////////////////////////\n\n///////////////////////CONSTRUCTOR & DEFAULT FUNCTIONS///////////////////////////\n\n    constructor(){\n        Owner = msg.sender;\n    }\n\n    function GetUniqueId() {\n        // 'now' == Current timestamp\n        // 'msg.sender' == Ethereum address of contract creator\n        address uniqueId = address(sha256(msg.sender, now));\n        databoolmapping[uniqueId][0] = true;\n        GetUniqueIdEvent(uniqueId);\n    }\n\n////////////////////CONSTRUCTOR & DEFAULT FUNCTIONS END//////////////////////////\n\n\n///////////////////////////////////MODIFIERS/////////////////////////////////////\n\n    modifier onlyOwner(){\n        require(Owner == msg.sender);\n        _;\n    }\n\n/////////////////////////////////MODIFIERS END///////////////////////////////////\n\n////////////////////////////////IGM FUNCTIONS////////////////////////////////////\n\n\n\n   // address _uniqueId, uint _billno, string[] _nameofexporter,\n  //  string _commoditydescription, string _country, string _nameofcarrier,\n   // string _nameofshipper, string _vesselname, uint _weightofcargo, uint _containernumner,\n   // string _placeofissue, string _placeofdelivery, string _portofloading\n\n        // nameofexporter = 0; commoditydescription = 1; country = 2; nameofoceancarrier = 3\n    // nameofshipper = 4; vesselname = 5; placeofissue = 6; placeofdelivery = 7;\n    // portofloading = 8\n    // billno = 0; weightofcargo = 1; containernumber = 2;\n    function SetIGMdata(address _uniqueId, uint[] datauint, string _nameofexporter,\n    string _commoditydescription, string _country, string _nameofoceancarrier,\n    string _nameofshipper, string _vesselname, string _placeofissue, string _placeofdelivery,\n    string _portofloading) returns (string){\n        if(!databoolmapping[_uniqueId][0]){\n            CheckUniqueIdEvent(false);\n            throw;\n            return \"UID is false!\";\n        }\n\n        if(databoolmapping[_uniqueId][1]){\n            throw;\n            return \"IGM already created with this UID\";\n        }\n        if(datauintmapping[_uniqueId][0] == 0){datauintmapping[_uniqueId][0] = datauint[0];}\n        if(datauintmapping[_uniqueId][1] == 0){datauintmapping[_uniqueId][1] = datauint[1];}\n        if(datauintmapping[_uniqueId][2] == 0){datauintmapping[_uniqueId][2] = datauint[2];}\n\n        if(bytes(datastringmapping[_uniqueId][0]).length == 0){datastringmapping[_uniqueId][0] = _nameofexporter;}\n        if(bytes(datastringmapping[_uniqueId][1]).length == 0){datastringmapping[_uniqueId][1] = _commoditydescription;}\n        if(bytes(datastringmapping[_uniqueId][2]).length == 0){datastringmapping[_uniqueId][2] = _country;}\n        if(bytes(datastringmapping[_uniqueId][3]).length == 0){datastringmapping[_uniqueId][3] = _nameofoceancarrier;}\n        if(bytes(datastringmapping[_uniqueId][4]).length == 0){datastringmapping[_uniqueId][4] = _nameofshipper;}\n        if(bytes(datastringmapping[_uniqueId][5]).length == 0){datastringmapping[_uniqueId][5] = _vesselname;}\n        if(bytes(datastringmapping[_uniqueId][6]).length == 0){datastringmapping[_uniqueId][6] = _placeofissue;}\n        if(bytes(datastringmapping[_uniqueId][7]).length == 0){datastringmapping[_uniqueId][7] = _placeofdelivery;}\n        if(bytes(datastringmapping[_uniqueId][8]).length == 0){datastringmapping[_uniqueId][8] = _portofloading;}\n\n\n        datatimestampmapping[_uniqueId][0] = now;\n        databoolmapping[_uniqueId][1] = true;\n        CheckUniqueIdEvent(true);\n        return \"UID is true!\";\n    }\n\n    function authorize_IGM(address _address, string _name) onlyOwner returns(string) {\n        if(!IGM_officials[_address].isauthorized){\n            IGM_officials[_address].isauthorized = true;\n            IGM_officials[_address].name = _name;\n            return \"IGM official authorized\";\n        }else{\n            IGM_officials[_address].isauthorized = false;\n            return \"IGM official unauthorized\";\n        }\n    }\n\n    function sign_IGM (address _uniqueId) returns (string){\n        if(!IGM_officials[msg.sender].isauthorized){\n            throw;\n            return \"Person is not authorized\";\n        }\n        if(databoolmapping[_uniqueId][2]){\n            throw;\n            return \"IGM with this UID is already verified\";\n        }\n        if(!databoolmapping[_uniqueId][0]){\n            throw;\n            return \"UID is false!\";\n        }\n\n        dataofficialaddressmapping[_uniqueId][0] = msg.sender;\n        databoolmapping[_uniqueId][2] = true;\n        datatimestampmapping[_uniqueId][1] = now;\n        return \"IGM form is signed by official\";\n    }\n\n///////////////////////////////IGM FUNCTIONS END//////////////////////////////////\n\n////////////////////////////BILL OF ENTRY FUNCTIONS///////////////////////////////\n\n\n    // billno = 0; weightofcargo = 1; containernumber = 2; custom_duty = 3; cha_code = 4; GST = 5;\n    // nameofexporter = 0; commoditydescription = 1; country = 2; nameofoceancarrier = 3\n    // nameofshipper = 4; vesselname = 5; placeofissue = 6; placeofdelivery = 7;\n    // portofloading = 8 nameofimporter = 9;\n    function SetBillofEntrydata(address _uniqueId, uint[] datauint, string _nameofimporter,\n    string _commoditydescription, string _country, string _nameofoceancarrier,\n    string _vesselname) returns (string){\n        if(!databoolmapping[_uniqueId][0]){\n            CheckUniqueIdEvent(false);\n            throw;\n            return \"UID is false!\";\n        }\n\n        if(databoolmapping[_uniqueId][3]){\n            throw;\n            return \"Bill of Entry already created with this UID\";\n        }\n\n        if(datauintmapping[_uniqueId][1] == 0){datauintmapping[_uniqueId][1] = datauint[0];} //weightofcargo\n        if(datauintmapping[_uniqueId][3] == 0){datauintmapping[_uniqueId][3] = datauint[1];} //custom_duty\n        if(datauintmapping[_uniqueId][4] == 0){datauintmapping[_uniqueId][4] = datauint[2];} //cha_code\n        if(datauintmapping[_uniqueId][5] == 0){datauintmapping[_uniqueId][5] = datauint[3];} //GST\n\n        if(bytes(datastringmapping[_uniqueId][9]).length == 0){datastringmapping[_uniqueId][9] = _nameofimporter;}\n        if(bytes(datastringmapping[_uniqueId][1]).length == 0){datastringmapping[_uniqueId][1] = _commoditydescription;}\n        if(bytes(datastringmapping[_uniqueId][2]).length == 0){datastringmapping[_uniqueId][2] = _country;}\n        if(bytes(datastringmapping[_uniqueId][3]).length == 0){datastringmapping[_uniqueId][3] = _nameofoceancarrier;}\n        if(bytes(datastringmapping[_uniqueId][5]).length == 0){datastringmapping[_uniqueId][5] = _vesselname;}\n        if(bytes(datastringmapping[_uniqueId][5]).length == 0){datastringmapping[_uniqueId][5] = _vesselname;}\n\n        datatimestampmapping[_uniqueId][2] = now;\n        databoolmapping[_uniqueId][3] = true;\n        CheckUniqueIdEvent(true);\n        return \"UID is true!\";\n    }\n\n    function authorize_Bill_of_Entry(address _address, string _name) onlyOwner returns(string) {\n        if(!BillofEntry_officials[_address].isauthorized){\n            BillofEntry_officials[_address].isauthorized = true;\n            BillofEntry_officials[_address].name = _name;\n            return \"BillofEntry official authorized\";\n        }else{\n            BillofEntry_officials[_address].isauthorized = false;\n            return \"BillofEntry official unauthorized\";\n        }\n    }\n\n    function sign_Bill_of_Entry(address _uniqueId) returns (string){\n        if(!BillofEntry_officials[msg.sender].isauthorized){\n            throw;\n            return \"Person is not authorized\";\n        }\n        if(databoolmapping[_uniqueId][4]){\n            throw;\n            return \"BillofEntry with this UID is already verified\";\n        }\n        if(!databoolmapping[_uniqueId][0]){\n            throw;\n            return \"UID is false!\";\n        }\n\n        dataofficialaddressmapping[_uniqueId][1] = msg.sender;\n        databoolmapping[_uniqueId][4] = true;\n        datatimestampmapping[_uniqueId][3] = now;\n        return \"BillofEntry form is signed by official\";\n    }\n\n///////////////////////////BILL OF ENTRY FUNCTIONS END///////////////////////////\n\n}\n\n\n\n",
  "sourcePath": "/Users/krishnakulkarni/Documents/MOVEHACK_2018/GIT/DISHA/contracts/Shipping.sol",
  "compiler": {
    "name": "solc",
    "version": "0.4.24+commit.e67f0147.Emscripten.clang"
  },
  "schemaVersion": "2.0.1",
  "updatedAt": "2018-08-15T14:18:53.977Z"
}