{
  "contractName": "Shipping",
  "abi": [
    {
      "anonymous": false,
      "inputs": [
        {
          "indexed": true,
          "name": "_uniqueId",
          "type": "address"
        }
      ],
      "name": "GetUniqueIdEvent",
      "type": "event"
    },
    {
      "constant": false,
      "inputs": [
        {
          "name": "_billno",
          "type": "uint256"
        },
        {
          "name": "_nameofexporter",
          "type": "string"
        }
      ],
      "name": "SetIGMdata",
      "outputs": [],
      "payable": false,
      "stateMutability": "nonpayable",
      "type": "function"
    }
  ],
  "bytecode": "0x608060405234801561001057600080fd5b50610322806100206000396000f300608060405260043610610041576000357c0100000000000000000000000000000000000000000000000000000000900463ffffffff168063086b4a3614610046575b600080fd5b34801561005257600080fd5b506100b760048036038101908080359060200190929190803590602001908201803590602001908080601f01602080910402602001604051908101604052809392919081815260200183838082843782019150505050505091929192905050506100b9565b005b60006100c36101a9565b9050826000808373ffffffffffffffffffffffffffffffffffffffff1673ffffffffffffffffffffffffffffffffffffffff16815260200190815260200160002060000181905550816000808373ffffffffffffffffffffffffffffffffffffffff1673ffffffffffffffffffffffffffffffffffffffff1681526020019081526020016000206001019080519060200190610160929190610251565b508073ffffffffffffffffffffffffffffffffffffffff167fb05e7facb1893c2f6874964db9b1738601724af978281901c43bb184a37a424d60405160405180910390a2505050565b60008060023342604051808373ffffffffffffffffffffffffffffffffffffffff1673ffffffffffffffffffffffffffffffffffffffff166c01000000000000000000000000028152601401828152602001925050506020604051808303816000865af115801561021e573d6000803e3d6000fd5b5050506040513d602081101561023357600080fd5b81019080805190602001909291905050506001900490508091505090565b828054600181600116156101000203166002900490600052602060002090601f016020900481019282601f1061029257805160ff19168380011785556102c0565b828001600101855582156102c0579182015b828111156102bf5782518255916020019190600101906102a4565b5b5090506102cd91906102d1565b5090565b6102f391905b808211156102ef5760008160009055506001016102d7565b5090565b905600a165627a7a723058203fdb73f5e77ffd9a373be55358812190ecb82de4267272715ace99b083d697980029",
  "source": "pragma solidity ^0.4.8;\ncontract Shipping{\n    \n   \n    struct Data {\n       uint billno;\n       string nameofexporter;\n    }\n    \n    event GetUniqueIdEvent(\n        address indexed _uniqueId\n        );\n    \n    mapping (address => Data) datamapping;\n    \n    function GetUniqueId() private returns (address){\n        // 'now' == Current timestamp \n        // 'msg.sender' == Ethereum address of contract creator\n        address uniqueId = address(sha256(msg.sender, now));\n        return (uniqueId);\n    }\n    \n    function SetIGMdata(uint _billno, string _nameofexporter){\n        address _uniqueId = GetUniqueId();\n        datamapping[_uniqueId].billno = _billno;\n        datamapping[_uniqueId].nameofexporter = _nameofexporter;\n        GetUniqueIdEvent(_uniqueId);\n        \n        \n    }\n\n        \n    \n}",
  "sourcePath": "/Users/krishnakulkarni/Documents/MOVEHACK_2018/GIT/DISHA/contracts/Shipping.sol",
  "compiler": {
    "name": "solc",
    "version": "0.4.24+commit.e67f0147.Emscripten.clang"
  },
  "schemaVersion": "2.0.1",
  "updatedAt": "2018-08-09T12:41:15.679Z"
}