{
  "contractName": "Shipping",
  "abi": [
    {
      "constant": true,
      "inputs": [
        {
          "name": "",
          "type": "address"
        }
      ],
      "name": "customs_officials",
      "outputs": [
        {
          "name": "name",
          "type": "string"
        },
        {
          "name": "isauthorized",
          "type": "bool"
        }
      ],
      "payable": false,
      "stateMutability": "view",
      "type": "function"
    },
    {
      "constant": true,
      "inputs": [
        {
          "name": "",
          "type": "address"
        }
      ],
      "name": "BillofEntry_officials",
      "outputs": [
        {
          "name": "name",
          "type": "string"
        },
        {
          "name": "isauthorized",
          "type": "bool"
        }
      ],
      "payable": false,
      "stateMutability": "view",
      "type": "function"
    },
    {
      "constant": true,
      "inputs": [
        {
          "name": "",
          "type": "address"
        }
      ],
      "name": "shed_officials",
      "outputs": [
        {
          "name": "name",
          "type": "string"
        },
        {
          "name": "isauthorized",
          "type": "bool"
        }
      ],
      "payable": false,
      "stateMutability": "view",
      "type": "function"
    },
    {
      "constant": true,
      "inputs": [
        {
          "name": "",
          "type": "address"
        },
        {
          "name": "",
          "type": "uint256"
        }
      ],
      "name": "permitboolmapping",
      "outputs": [
        {
          "name": "",
          "type": "bool"
        }
      ],
      "payable": false,
      "stateMutability": "view",
      "type": "function"
    },
    {
      "constant": true,
      "inputs": [
        {
          "name": "",
          "type": "address"
        },
        {
          "name": "",
          "type": "uint256"
        }
      ],
      "name": "datauintmapping",
      "outputs": [
        {
          "name": "",
          "type": "uint256"
        }
      ],
      "payable": false,
      "stateMutability": "view",
      "type": "function"
    },
    {
      "constant": true,
      "inputs": [
        {
          "name": "",
          "type": "address"
        },
        {
          "name": "",
          "type": "uint256"
        }
      ],
      "name": "permitsstringmapping",
      "outputs": [
        {
          "name": "",
          "type": "address"
        }
      ],
      "payable": false,
      "stateMutability": "view",
      "type": "function"
    },
    {
      "constant": true,
      "inputs": [
        {
          "name": "",
          "type": "address"
        }
      ],
      "name": "IGM_officials",
      "outputs": [
        {
          "name": "name",
          "type": "string"
        },
        {
          "name": "isauthorized",
          "type": "bool"
        }
      ],
      "payable": false,
      "stateMutability": "view",
      "type": "function"
    },
    {
      "constant": true,
      "inputs": [
        {
          "name": "",
          "type": "address"
        },
        {
          "name": "",
          "type": "uint256"
        }
      ],
      "name": "datastringmapping",
      "outputs": [
        {
          "name": "",
          "type": "string"
        }
      ],
      "payable": false,
      "stateMutability": "view",
      "type": "function"
    },
    {
      "constant": true,
      "inputs": [
        {
          "name": "",
          "type": "address"
        },
        {
          "name": "",
          "type": "uint256"
        }
      ],
      "name": "databoolmapping",
      "outputs": [
        {
          "name": "",
          "type": "bool"
        }
      ],
      "payable": false,
      "stateMutability": "view",
      "type": "function"
    },
    {
      "constant": true,
      "inputs": [
        {
          "name": "",
          "type": "address"
        }
      ],
      "name": "BillofLading_officials",
      "outputs": [
        {
          "name": "name",
          "type": "string"
        },
        {
          "name": "isauthorized",
          "type": "bool"
        }
      ],
      "payable": false,
      "stateMutability": "view",
      "type": "function"
    },
    {
      "constant": true,
      "inputs": [
        {
          "name": "",
          "type": "address"
        },
        {
          "name": "",
          "type": "uint256"
        }
      ],
      "name": "dataofficialaddressmapping",
      "outputs": [
        {
          "name": "",
          "type": "address"
        }
      ],
      "payable": false,
      "stateMutability": "view",
      "type": "function"
    },
    {
      "constant": true,
      "inputs": [
        {
          "name": "",
          "type": "address"
        },
        {
          "name": "",
          "type": "uint256"
        }
      ],
      "name": "datatimestampmapping",
      "outputs": [
        {
          "name": "",
          "type": "uint256"
        }
      ],
      "payable": false,
      "stateMutability": "view",
      "type": "function"
    },
    {
      "inputs": [],
      "payable": false,
      "stateMutability": "nonpayable",
      "type": "constructor"
    },
    {
      "anonymous": false,
      "inputs": [
        {
          "indexed": true,
          "name": "_uniqueId",
          "type": "address"
        }
      ],
      "name": "GetUniqueIdEvent",
      "type": "event"
    },
    {
      "anonymous": false,
      "inputs": [
        {
          "indexed": true,
          "name": "_isgenerated",
          "type": "bool"
        }
      ],
      "name": "CheckUniqueIdEvent",
      "type": "event"
    },
    {
      "constant": false,
      "inputs": [],
      "name": "GetUniqueId",
      "outputs": [],
      "payable": false,
      "stateMutability": "nonpayable",
      "type": "function"
    },
    {
      "constant": false,
      "inputs": [
        {
          "name": "_uniqueId",
          "type": "address"
        },
        {
          "name": "_uniqueId_Permit",
          "type": "address"
        }
      ],
      "name": "setImportPermit",
      "outputs": [
        {
          "name": "",
          "type": "string"
        }
      ],
      "payable": false,
      "stateMutability": "nonpayable",
      "type": "function"
    },
    {
      "constant": false,
      "inputs": [
        {
          "name": "_uniqueId",
          "type": "address"
        },
        {
          "name": "datauint",
          "type": "uint256[]"
        },
        {
          "name": "_nameofexporter",
          "type": "string"
        },
        {
          "name": "_commoditydescription",
          "type": "string"
        },
        {
          "name": "_country",
          "type": "string"
        },
        {
          "name": "_nameofoceancarrier",
          "type": "string"
        },
        {
          "name": "_nameofshipper",
          "type": "string"
        },
        {
          "name": "_vesselname",
          "type": "string"
        },
        {
          "name": "_placeofissue",
          "type": "string"
        },
        {
          "name": "_placeofdelivery",
          "type": "string"
        },
        {
          "name": "_portofloading",
          "type": "string"
        }
      ],
      "name": "SetIGMdata",
      "outputs": [
        {
          "name": "",
          "type": "string"
        }
      ],
      "payable": false,
      "stateMutability": "nonpayable",
      "type": "function"
    },
    {
      "constant": false,
      "inputs": [
        {
          "name": "_address",
          "type": "address"
        },
        {
          "name": "_name",
          "type": "string"
        }
      ],
      "name": "authorize_IGM",
      "outputs": [
        {
          "name": "",
          "type": "string"
        }
      ],
      "payable": false,
      "stateMutability": "nonpayable",
      "type": "function"
    },
    {
      "constant": false,
      "inputs": [
        {
          "name": "_uniqueId",
          "type": "address"
        }
      ],
      "name": "sign_IGM",
      "outputs": [
        {
          "name": "",
          "type": "string"
        }
      ],
      "payable": false,
      "stateMutability": "nonpayable",
      "type": "function"
    },
    {
      "constant": false,
      "inputs": [
        {
          "name": "_uniqueId",
          "type": "address"
        },
        {
          "name": "datauint",
          "type": "uint256[]"
        },
        {
          "name": "_nameofimporter",
          "type": "string"
        },
        {
          "name": "_commoditydescription",
          "type": "string"
        },
        {
          "name": "_country",
          "type": "string"
        },
        {
          "name": "_nameofoceancarrier",
          "type": "string"
        },
        {
          "name": "_vesselname",
          "type": "string"
        }
      ],
      "name": "SetBillofEntrydata",
      "outputs": [
        {
          "name": "",
          "type": "string"
        }
      ],
      "payable": false,
      "stateMutability": "nonpayable",
      "type": "function"
    },
    {
      "constant": false,
      "inputs": [
        {
          "name": "_address",
          "type": "address"
        },
        {
          "name": "_name",
          "type": "string"
        }
      ],
      "name": "authorize_Bill_of_Entry",
      "outputs": [
        {
          "name": "",
          "type": "string"
        }
      ],
      "payable": false,
      "stateMutability": "nonpayable",
      "type": "function"
    },
    {
      "constant": false,
      "inputs": [
        {
          "name": "_uniqueId",
          "type": "address"
        }
      ],
      "name": "sign_Bill_of_Entry",
      "outputs": [
        {
          "name": "",
          "type": "string"
        }
      ],
      "payable": false,
      "stateMutability": "nonpayable",
      "type": "function"
    },
    {
      "constant": false,
      "inputs": [
        {
          "name": "_uniqueId",
          "type": "address"
        },
        {
          "name": "datauint",
          "type": "uint256[]"
        },
        {
          "name": "_nameofimporter",
          "type": "string"
        },
        {
          "name": "_nameofexporter",
          "type": "string"
        },
        {
          "name": "_commoditydescription",
          "type": "string"
        },
        {
          "name": "_country",
          "type": "string"
        },
        {
          "name": "_nameofoceancarrier",
          "type": "string"
        },
        {
          "name": "_vesselname",
          "type": "string"
        },
        {
          "name": "_portofloading",
          "type": "string"
        },
        {
          "name": "_placeofdelivery",
          "type": "string"
        }
      ],
      "name": "SetBillofLadingdata",
      "outputs": [
        {
          "name": "",
          "type": "string"
        }
      ],
      "payable": false,
      "stateMutability": "nonpayable",
      "type": "function"
    },
    {
      "constant": false,
      "inputs": [
        {
          "name": "_uniqueId",
          "type": "address"
        }
      ],
      "name": "sign_Bill_of_Lading",
      "outputs": [
        {
          "name": "",
          "type": "string"
        }
      ],
      "payable": false,
      "stateMutability": "nonpayable",
      "type": "function"
    }
  ],
  "bytecode": "0x608060405234801561001057600080fd5b50336000806101000a81548173ffffffffffffffffffffffffffffffffffffffff021916908373ffffffffffffffffffffffffffffffffffffffff160217905550614575806100606000396000f300608060405260043610610128576000357c0100000000000000000000000000000000000000000000000000000000900463ffffffff168063051b21bc1461012d5780631a8d44601461016a5780631cf39d24146101a85780632264deda146101e5578063324153e3146102235780633466187114610261578063497f97131461029e57806361a12e89146102db5780637c875d26146103185780637eb814d014610355578063807d00a71461039257806389501485146103cf578063901b1cd31461040c5780639ecfde7914610423578063a13045b414610461578063ada7d1471461049e578063b4c4af25146104db578063c2f14ad114610518578063c5d5c0a014610555578063e55967b514610593578063e57c2b31146105d0578063e6a43ec91461060d575b600080fd5b34801561013957600080fd5b50610154600480360361014f9190810190613cd3565b61064a565b604051610161919061437a565b60405180910390f35b34801561017657600080fd5b50610191600480360361018c9190810190613caa565b61082b565b60405161019f92919061439c565b60405180910390f35b3480156101b457600080fd5b506101cf60048036036101ca9190810190613caa565b6108f4565b6040516101dc919061437a565b60405180910390f35b3480156101f157600080fd5b5061020c60048036036102079190810190613caa565b610b82565b60405161021a92919061439c565b60405180910390f35b34801561022f57600080fd5b5061024a60048036036102459190810190613caa565b610c4b565b60405161025892919061439c565b60405180910390f35b34801561026d57600080fd5b5061028860048036036102839190810190613e3d565b610d14565b604051610295919061437a565b60405180910390f35b3480156102aa57600080fd5b506102c560048036036102c09190810190613caa565b611692565b6040516102d2919061437a565b60405180910390f35b3480156102e757600080fd5b5061030260048036036102fd9190810190613caa565b61197b565b60405161030f919061437a565b60405180910390f35b34801561032457600080fd5b5061033f600480360361033a9190810190614224565b611c3d565b60405161034c919061433d565b60405180910390f35b34801561036157600080fd5b5061037c60048036036103779190810190614224565b611c75565b60405161038991906143cc565b60405180910390f35b34801561039e57600080fd5b506103b960048036036103b491908101906141d0565b611c9c565b6040516103c6919061437a565b60405180910390f35b3480156103db57600080fd5b506103f660048036036103f19190810190614224565b611ed8565b6040516104039190614322565b60405180910390f35b34801561041857600080fd5b50610421611f1c565b005b34801561042f57600080fd5b5061044a60048036036104459190810190613caa565b61206c565b60405161045892919061439c565b60405180910390f35b34801561046d57600080fd5b5061048860048036036104839190810190613d0f565b612135565b604051610495919061437a565b60405180910390f35b3480156104aa57600080fd5b506104c560048036036104c09190810190614224565b612a8c565b6040516104d29190614358565b60405180910390f35b3480156104e757600080fd5b5061050260048036036104fd91908101906141d0565b612b4b565b60405161050f919061437a565b60405180910390f35b34801561052457600080fd5b5061053f600480360361053a9190810190614224565b612dae565b60405161054c919061433d565b60405180910390f35b34801561056157600080fd5b5061057c60048036036105779190810190613caa565b612de6565b60405161058a92919061439c565b60405180910390f35b34801561059f57600080fd5b506105ba60048036036105b59190810190613ff0565b612eaf565b6040516105c7919061437a565b60405180910390f35b3480156105dc57600080fd5b506105f760048036036105f29190810190614224565b613a83565b6040516106049190614322565b60405180910390f35b34801561061957600080fd5b50610634600480360361062f9190810190614224565b613ac7565b60405161064191906143cc565b60405180910390f35b6060600760008473ffffffffffffffffffffffffffffffffffffffff1673ffffffffffffffffffffffffffffffffffffffff1681526020019081526020016000206000600a8110151561069957fe5b602091828204019190069054906101000a900460ff16156106f1576040805190810160405280601f81526020017f496d706f7274205065726d697420616c7265616479207375626d6974746564008152509050610825565b81600660008573ffffffffffffffffffffffffffffffffffffffff1673ffffffffffffffffffffffffffffffffffffffff1681526020019081526020016000206000600a8110151561073f57fe5b0160006101000a81548173ffffffffffffffffffffffffffffffffffffffff021916908373ffffffffffffffffffffffffffffffffffffffff1602179055506001600760008573ffffffffffffffffffffffffffffffffffffffff1673ffffffffffffffffffffffffffffffffffffffff1681526020019081526020016000206000600a811015156107cd57fe5b602091828204019190066101000a81548160ff0219169083151502179055506040805190810160405280601781526020017f496d706f7274205065726d6974207375626d697474656400000000000000000081525090505b92915050565b600b602052806000526040600020600091509050806000018054600181600116156101000203166002900480601f0160208091040260200160405190810160405280929190818152602001828054600181600116156101000203166002900480156108d75780601f106108ac576101008083540402835291602001916108d7565b820191906000526020600020905b8154815290600101906020018083116108ba57829003601f168201915b5050505050908060010160009054906101000a900460ff16905082565b6060600160008373ffffffffffffffffffffffffffffffffffffffff1673ffffffffffffffffffffffffffffffffffffffff1681526020019081526020016000206006601e8110151561094357fe5b602091828204019190069054906101000a900460ff161561096357600080fd5b600160008373ffffffffffffffffffffffffffffffffffffffff1673ffffffffffffffffffffffffffffffffffffffff1681526020019081526020016000206000601e811015156109b057fe5b602091828204019190069054906101000a900460ff1615156109d157600080fd5b33600360008473ffffffffffffffffffffffffffffffffffffffff1673ffffffffffffffffffffffffffffffffffffffff1681526020019081526020016000206002601481101515610a1f57fe5b0160006101000a81548173ffffffffffffffffffffffffffffffffffffffff021916908373ffffffffffffffffffffffffffffffffffffffff16021790555060018060008473ffffffffffffffffffffffffffffffffffffffff1673ffffffffffffffffffffffffffffffffffffffff1681526020019081526020016000206006601e81101515610aac57fe5b602091828204019190066101000a81548160ff02191690831515021790555042600260008473ffffffffffffffffffffffffffffffffffffffff1673ffffffffffffffffffffffffffffffffffffffff1681526020019081526020016000206005601481101515610b1957fe5b0181905550606060405190810160405280602681526020017f42696c6c6f66456e74727920666f726d206973207369676e6564206279206f6681526020017f66696369616c00000000000000000000000000000000000000000000000000008152509050919050565b6009602052806000526040600020600091509050806000018054600181600116156101000203166002900480601f016020809104026020016040519081016040528092919081815260200182805460018160011615610100020316600290048015610c2e5780601f10610c0357610100808354040283529160200191610c2e565b820191906000526020600020905b815481529060010190602001808311610c1157829003601f168201915b5050505050908060010160009054906101000a900460ff16905082565b600c602052806000526040600020600091509050806000018054600181600116156101000203166002900480601f016020809104026020016040519081016040528092919081815260200182805460018160011615610100020316600290048015610cf75780601f10610ccc57610100808354040283529160200191610cf7565b820191906000526020600020905b815481529060010190602001808311610cda57829003601f168201915b5050505050908060010160009054906101000a900460ff16905082565b6060600160008c73ffffffffffffffffffffffffffffffffffffffff1673ffffffffffffffffffffffffffffffffffffffff1681526020019081526020016000206000601e81101515610d6357fe5b602091828204019190069054906101000a900460ff161515610db457600015157fbd70a8755b4f719e8e80bbb0fca601f2b000a3ce221c69b1bd5014fe1bfd747060405160405180910390a2600080fd5b600160008c73ffffffffffffffffffffffffffffffffffffffff1673ffffffffffffffffffffffffffffffffffffffff1681526020019081526020016000206005601e81101515610e0157fe5b602091828204019190069054906101000a900460ff1615610e2157600080fd5b6000600560008d73ffffffffffffffffffffffffffffffffffffffff1673ffffffffffffffffffffffffffffffffffffffff1681526020019081526020016000206001602881101515610e7057fe5b01541415610ee457896000815181101515610e8757fe5b90602001906020020151600560008d73ffffffffffffffffffffffffffffffffffffffff1673ffffffffffffffffffffffffffffffffffffffff1681526020019081526020016000206001602881101515610ede57fe5b01819055505b6000600460008d73ffffffffffffffffffffffffffffffffffffffff1673ffffffffffffffffffffffffffffffffffffffff1681526020019081526020016000206009602881101515610f3357fe5b018054600181600116156101000203166002900490501415610fb35788600460008d73ffffffffffffffffffffffffffffffffffffffff1673ffffffffffffffffffffffffffffffffffffffff1681526020019081526020016000206009602881101515610f9d57fe5b019080519060200190610fb1929190613aee565b505b6000600460008d73ffffffffffffffffffffffffffffffffffffffff1673ffffffffffffffffffffffffffffffffffffffff168152602001908152602001600020600160288110151561100257fe5b0180546001816001161561010002031660029004905014156110825786600460008d73ffffffffffffffffffffffffffffffffffffffff1673ffffffffffffffffffffffffffffffffffffffff168152602001908152602001600020600160288110151561106c57fe5b019080519060200190611080929190613aee565b505b6000600460008d73ffffffffffffffffffffffffffffffffffffffff1673ffffffffffffffffffffffffffffffffffffffff16815260200190815260200160002060026028811015156110d157fe5b0180546001816001161561010002031660029004905014156111515785600460008d73ffffffffffffffffffffffffffffffffffffffff1673ffffffffffffffffffffffffffffffffffffffff168152602001908152602001600020600260288110151561113b57fe5b01908051906020019061114f929190613aee565b505b6000600460008d73ffffffffffffffffffffffffffffffffffffffff1673ffffffffffffffffffffffffffffffffffffffff16815260200190815260200160002060036028811015156111a057fe5b0180546001816001161561010002031660029004905014156112205784600460008d73ffffffffffffffffffffffffffffffffffffffff1673ffffffffffffffffffffffffffffffffffffffff168152602001908152602001600020600360288110151561120a57fe5b01908051906020019061121e929190613aee565b505b6000600460008d73ffffffffffffffffffffffffffffffffffffffff1673ffffffffffffffffffffffffffffffffffffffff168152602001908152602001600020600560288110151561126f57fe5b0180546001816001161561010002031660029004905014156112ef5783600460008d73ffffffffffffffffffffffffffffffffffffffff1673ffffffffffffffffffffffffffffffffffffffff16815260200190815260200160002060056028811015156112d957fe5b0190805190602001906112ed929190613aee565b505b6000600460008d73ffffffffffffffffffffffffffffffffffffffff1673ffffffffffffffffffffffffffffffffffffffff168152602001908152602001600020600860288110151561133e57fe5b0180546001816001161561010002031660029004905014156113be5782600460008d73ffffffffffffffffffffffffffffffffffffffff1673ffffffffffffffffffffffffffffffffffffffff16815260200190815260200160002060086028811015156113a857fe5b0190805190602001906113bc929190613aee565b505b6000600460008d73ffffffffffffffffffffffffffffffffffffffff1673ffffffffffffffffffffffffffffffffffffffff168152602001908152602001600020600760288110151561140d57fe5b01805460018160011615610100020316600290049050141561148d5781600460008d73ffffffffffffffffffffffffffffffffffffffff1673ffffffffffffffffffffffffffffffffffffffff168152602001908152602001600020600760288110151561147757fe5b01908051906020019061148b929190613aee565b505b6000600460008d73ffffffffffffffffffffffffffffffffffffffff1673ffffffffffffffffffffffffffffffffffffffff16815260200190815260200160002060006028811015156114dc57fe5b01805460018160011615610100020316600290049050141561155c5787600460008d73ffffffffffffffffffffffffffffffffffffffff1673ffffffffffffffffffffffffffffffffffffffff168152602001908152602001600020600060288110151561154657fe5b01908051906020019061155a929190613aee565b505b42600260008d73ffffffffffffffffffffffffffffffffffffffff1673ffffffffffffffffffffffffffffffffffffffff16815260200190815260200160002060046014811015156115aa57fe5b018190555060018060008d73ffffffffffffffffffffffffffffffffffffffff1673ffffffffffffffffffffffffffffffffffffffff1681526020019081526020016000206005601e811015156115fd57fe5b602091828204019190066101000a81548160ff021916908315150217905550600115157fbd70a8755b4f719e8e80bbb0fca601f2b000a3ce221c69b1bd5014fe1bfd747060405160405180910390a26040805190810160405280600c81526020017f554944206973207472756521000000000000000000000000000000000000000081525090509a9950505050505050505050565b6060600960003373ffffffffffffffffffffffffffffffffffffffff1673ffffffffffffffffffffffffffffffffffffffff16815260200190815260200160002060010160009054906101000a900460ff1615156116ef57600080fd5b600160008373ffffffffffffffffffffffffffffffffffffffff1673ffffffffffffffffffffffffffffffffffffffff1681526020019081526020016000206004601e8110151561173c57fe5b602091828204019190069054906101000a900460ff161561175c57600080fd5b600160008373ffffffffffffffffffffffffffffffffffffffff1673ffffffffffffffffffffffffffffffffffffffff1681526020019081526020016000206000601e811015156117a957fe5b602091828204019190069054906101000a900460ff1615156117ca57600080fd5b33600360008473ffffffffffffffffffffffffffffffffffffffff1673ffffffffffffffffffffffffffffffffffffffff168152602001908152602001600020600160148110151561181857fe5b0160006101000a81548173ffffffffffffffffffffffffffffffffffffffff021916908373ffffffffffffffffffffffffffffffffffffffff16021790555060018060008473ffffffffffffffffffffffffffffffffffffffff1673ffffffffffffffffffffffffffffffffffffffff1681526020019081526020016000206004601e811015156118a557fe5b602091828204019190066101000a81548160ff02191690831515021790555042600260008473ffffffffffffffffffffffffffffffffffffffff1673ffffffffffffffffffffffffffffffffffffffff168152602001908152602001600020600360148110151561191257fe5b0181905550606060405190810160405280602681526020017f42696c6c6f66456e74727920666f726d206973207369676e6564206279206f6681526020017f66696369616c00000000000000000000000000000000000000000000000000008152509050919050565b6060600860003373ffffffffffffffffffffffffffffffffffffffff1673ffffffffffffffffffffffffffffffffffffffff16815260200190815260200160002060010160009054906101000a900460ff1615156119d857600080fd5b600160008373ffffffffffffffffffffffffffffffffffffffff1673ffffffffffffffffffffffffffffffffffffffff1681526020019081526020016000206002601e81101515611a2557fe5b602091828204019190069054906101000a900460ff1615611a4557600080fd5b600160008373ffffffffffffffffffffffffffffffffffffffff1673ffffffffffffffffffffffffffffffffffffffff1681526020019081526020016000206000601e81101515611a9257fe5b602091828204019190069054906101000a900460ff161515611ab357600080fd5b33600360008473ffffffffffffffffffffffffffffffffffffffff1673ffffffffffffffffffffffffffffffffffffffff1681526020019081526020016000206000601481101515611b0157fe5b0160006101000a81548173ffffffffffffffffffffffffffffffffffffffff021916908373ffffffffffffffffffffffffffffffffffffffff16021790555060018060008473ffffffffffffffffffffffffffffffffffffffff1673ffffffffffffffffffffffffffffffffffffffff1681526020019081526020016000206002601e81101515611b8e57fe5b602091828204019190066101000a81548160ff02191690831515021790555042600260008473ffffffffffffffffffffffffffffffffffffffff1673ffffffffffffffffffffffffffffffffffffffff1681526020019081526020016000206001601481101515611bfb57fe5b01819055506040805190810160405280601e81526020017f49474d20666f726d206973207369676e6564206279206f6666696369616c00008152509050919050565b600760205281600052604060002081600a81101515611c5857fe5b60209182820401919006915091509054906101000a900460ff1681565b600560205281600052604060002081602881101515611c9057fe5b01600091509150505481565b60603373ffffffffffffffffffffffffffffffffffffffff166000809054906101000a900473ffffffffffffffffffffffffffffffffffffffff1673ffffffffffffffffffffffffffffffffffffffff16141515611cf957600080fd5b600860008473ffffffffffffffffffffffffffffffffffffffff1673ffffffffffffffffffffffffffffffffffffffff16815260200190815260200160002060010160009054906101000a900460ff161515611e3e576001600860008573ffffffffffffffffffffffffffffffffffffffff1673ffffffffffffffffffffffffffffffffffffffff16815260200190815260200160002060010160006101000a81548160ff02191690831515021790555081600860008573ffffffffffffffffffffffffffffffffffffffff1673ffffffffffffffffffffffffffffffffffffffff1681526020019081526020016000206000019080519060200190611e00929190613aee565b506040805190810160405280601781526020017f49474d206f6666696369616c20617574686f72697a65640000000000000000008152509050611ed2565b6000600860008573ffffffffffffffffffffffffffffffffffffffff1673ffffffffffffffffffffffffffffffffffffffff16815260200190815260200160002060010160006101000a81548160ff0219169083151502179055506040805190810160405280601981526020017f49474d206f6666696369616c20756e617574686f72697a65640000000000000081525090505b92915050565b600660205281600052604060002081600a81101515611ef357fe5b016000915091509054906101000a900473ffffffffffffffffffffffffffffffffffffffff1681565b600060023342604051808373ffffffffffffffffffffffffffffffffffffffff1673ffffffffffffffffffffffffffffffffffffffff166c01000000000000000000000000028152601401828152602001925050506020604051808303816000865af1158015611f90573d6000803e3d6000fd5b5050506040513d601f19601f82011682018060405250611fb39190810190614260565b60019004905060018060008373ffffffffffffffffffffffffffffffffffffffff1673ffffffffffffffffffffffffffffffffffffffff1681526020019081526020016000206000601e8110151561200757fe5b602091828204019190066101000a81548160ff0219169083151502179055508073ffffffffffffffffffffffffffffffffffffffff167fb05e7facb1893c2f6874964db9b1738601724af978281901c43bb184a37a424d60405160405180910390a250565b6008602052806000526040600020600091509050806000018054600181600116156101000203166002900480601f0160208091040260200160405190810160405280929190818152602001828054600181600116156101000203166002900480156121185780601f106120ed57610100808354040283529160200191612118565b820191906000526020600020905b8154815290600101906020018083116120fb57829003601f168201915b5050505050908060010160009054906101000a900460ff16905082565b6060600160008973ffffffffffffffffffffffffffffffffffffffff1673ffffffffffffffffffffffffffffffffffffffff1681526020019081526020016000206000601e8110151561218457fe5b602091828204019190069054906101000a900460ff1615156121d557600015157fbd70a8755b4f719e8e80bbb0fca601f2b000a3ce221c69b1bd5014fe1bfd747060405160405180910390a2600080fd5b600160008973ffffffffffffffffffffffffffffffffffffffff1673ffffffffffffffffffffffffffffffffffffffff1681526020019081526020016000206003601e8110151561222257fe5b602091828204019190069054906101000a900460ff161561224257600080fd5b6000600560008a73ffffffffffffffffffffffffffffffffffffffff1673ffffffffffffffffffffffffffffffffffffffff168152602001908152602001600020600160288110151561229157fe5b01541415612305578660008151811015156122a857fe5b90602001906020020151600560008a73ffffffffffffffffffffffffffffffffffffffff1673ffffffffffffffffffffffffffffffffffffffff16815260200190815260200160002060016028811015156122ff57fe5b01819055505b6000600560008a73ffffffffffffffffffffffffffffffffffffffff1673ffffffffffffffffffffffffffffffffffffffff168152602001908152602001600020600360288110151561235457fe5b015414156123c85786600181518110151561236b57fe5b90602001906020020151600560008a73ffffffffffffffffffffffffffffffffffffffff1673ffffffffffffffffffffffffffffffffffffffff16815260200190815260200160002060036028811015156123c257fe5b01819055505b6000600560008a73ffffffffffffffffffffffffffffffffffffffff1673ffffffffffffffffffffffffffffffffffffffff168152602001908152602001600020600460288110151561241757fe5b0154141561248b5786600281518110151561242e57fe5b90602001906020020151600560008a73ffffffffffffffffffffffffffffffffffffffff1673ffffffffffffffffffffffffffffffffffffffff168152602001908152602001600020600460288110151561248557fe5b01819055505b6000600560008a73ffffffffffffffffffffffffffffffffffffffff1673ffffffffffffffffffffffffffffffffffffffff16815260200190815260200160002060056028811015156124da57fe5b0154141561254e578660038151811015156124f157fe5b90602001906020020151600560008a73ffffffffffffffffffffffffffffffffffffffff1673ffffffffffffffffffffffffffffffffffffffff168152602001908152602001600020600560288110151561254857fe5b01819055505b6000600460008a73ffffffffffffffffffffffffffffffffffffffff1673ffffffffffffffffffffffffffffffffffffffff168152602001908152602001600020600960288110151561259d57fe5b01805460018160011615610100020316600290049050141561261d5785600460008a73ffffffffffffffffffffffffffffffffffffffff1673ffffffffffffffffffffffffffffffffffffffff168152602001908152602001600020600960288110151561260757fe5b01908051906020019061261b929190613aee565b505b6000600460008a73ffffffffffffffffffffffffffffffffffffffff1673ffffffffffffffffffffffffffffffffffffffff168152602001908152602001600020600160288110151561266c57fe5b0180546001816001161561010002031660029004905014156126ec5784600460008a73ffffffffffffffffffffffffffffffffffffffff1673ffffffffffffffffffffffffffffffffffffffff16815260200190815260200160002060016028811015156126d657fe5b0190805190602001906126ea929190613aee565b505b6000600460008a73ffffffffffffffffffffffffffffffffffffffff1673ffffffffffffffffffffffffffffffffffffffff168152602001908152602001600020600260288110151561273b57fe5b0180546001816001161561010002031660029004905014156127bb5783600460008a73ffffffffffffffffffffffffffffffffffffffff1673ffffffffffffffffffffffffffffffffffffffff16815260200190815260200160002060026028811015156127a557fe5b0190805190602001906127b9929190613aee565b505b6000600460008a73ffffffffffffffffffffffffffffffffffffffff1673ffffffffffffffffffffffffffffffffffffffff168152602001908152602001600020600360288110151561280a57fe5b01805460018160011615610100020316600290049050141561288a5782600460008a73ffffffffffffffffffffffffffffffffffffffff1673ffffffffffffffffffffffffffffffffffffffff168152602001908152602001600020600360288110151561287457fe5b019080519060200190612888929190613aee565b505b6000600460008a73ffffffffffffffffffffffffffffffffffffffff1673ffffffffffffffffffffffffffffffffffffffff16815260200190815260200160002060056028811015156128d957fe5b0180546001816001161561010002031660029004905014156129595781600460008a73ffffffffffffffffffffffffffffffffffffffff1673ffffffffffffffffffffffffffffffffffffffff168152602001908152602001600020600560288110151561294357fe5b019080519060200190612957929190613aee565b505b42600260008a73ffffffffffffffffffffffffffffffffffffffff1673ffffffffffffffffffffffffffffffffffffffff16815260200190815260200160002060026014811015156129a757fe5b018190555060018060008a73ffffffffffffffffffffffffffffffffffffffff1673ffffffffffffffffffffffffffffffffffffffff1681526020019081526020016000206003601e811015156129fa57fe5b602091828204019190066101000a81548160ff021916908315150217905550600115157fbd70a8755b4f719e8e80bbb0fca601f2b000a3ce221c69b1bd5014fe1bfd747060405160405180910390a26040805190810160405280600c81526020017f55494420697320747275652100000000000000000000000000000000000000008152509050979650505050505050565b600460205281600052604060002081602881101515612aa757fe5b01600091509150508054600181600116156101000203166002900480601f016020809104026020016040519081016040528092919081815260200182805460018160011615610100020316600290048015612b435780601f10612b1857610100808354040283529160200191612b43565b820191906000526020600020905b815481529060010190602001808311612b2657829003601f168201915b505050505081565b60603373ffffffffffffffffffffffffffffffffffffffff166000809054906101000a900473ffffffffffffffffffffffffffffffffffffffff1673ffffffffffffffffffffffffffffffffffffffff16141515612ba857600080fd5b600960008473ffffffffffffffffffffffffffffffffffffffff1673ffffffffffffffffffffffffffffffffffffffff16815260200190815260200160002060010160009054906101000a900460ff161515612ced576001600960008573ffffffffffffffffffffffffffffffffffffffff1673ffffffffffffffffffffffffffffffffffffffff16815260200190815260200160002060010160006101000a81548160ff02191690831515021790555081600960008573ffffffffffffffffffffffffffffffffffffffff1673ffffffffffffffffffffffffffffffffffffffff1681526020019081526020016000206000019080519060200190612caf929190613aee565b506040805190810160405280601f81526020017f42696c6c6f66456e747279206f6666696369616c20617574686f72697a6564008152509050612da8565b6000600960008573ffffffffffffffffffffffffffffffffffffffff1673ffffffffffffffffffffffffffffffffffffffff16815260200190815260200160002060010160006101000a81548160ff021916908315150217905550606060405190810160405280602181526020017f42696c6c6f66456e747279206f6666696369616c20756e617574686f72697a6581526020017f640000000000000000000000000000000000000000000000000000000000000081525090505b92915050565b600160205281600052604060002081601e81101515612dc957fe5b60209182820401919006915091509054906101000a900460ff1681565b600a602052806000526040600020600091509050806000018054600181600116156101000203166002900480601f016020809104026020016040519081016040528092919081815260200182805460018160011615610100020316600290048015612e925780601f10612e6757610100808354040283529160200191612e92565b820191906000526020600020905b815481529060010190602001808311612e7557829003601f168201915b5050505050908060010160009054906101000a900460ff16905082565b6060600160008d73ffffffffffffffffffffffffffffffffffffffff1673ffffffffffffffffffffffffffffffffffffffff1681526020019081526020016000206000601e81101515612efe57fe5b602091828204019190069054906101000a900460ff161515612f4f57600015157fbd70a8755b4f719e8e80bbb0fca601f2b000a3ce221c69b1bd5014fe1bfd747060405160405180910390a2600080fd5b600160008d73ffffffffffffffffffffffffffffffffffffffff1673ffffffffffffffffffffffffffffffffffffffff1681526020019081526020016000206001601e81101515612f9c57fe5b602091828204019190069054906101000a900460ff1615612fbc57600080fd5b6000600560008e73ffffffffffffffffffffffffffffffffffffffff1673ffffffffffffffffffffffffffffffffffffffff168152602001908152602001600020600060288110151561300b57fe5b0154141561307f578a600081518110151561302257fe5b90602001906020020151600560008e73ffffffffffffffffffffffffffffffffffffffff1673ffffffffffffffffffffffffffffffffffffffff168152602001908152602001600020600060288110151561307957fe5b01819055505b6000600560008e73ffffffffffffffffffffffffffffffffffffffff1673ffffffffffffffffffffffffffffffffffffffff16815260200190815260200160002060016028811015156130ce57fe5b01541415613142578a60018151811015156130e557fe5b90602001906020020151600560008e73ffffffffffffffffffffffffffffffffffffffff1673ffffffffffffffffffffffffffffffffffffffff168152602001908152602001600020600160288110151561313c57fe5b01819055505b6000600560008e73ffffffffffffffffffffffffffffffffffffffff1673ffffffffffffffffffffffffffffffffffffffff168152602001908152602001600020600260288110151561319157fe5b01541415613205578a60028151811015156131a857fe5b90602001906020020151600560008e73ffffffffffffffffffffffffffffffffffffffff1673ffffffffffffffffffffffffffffffffffffffff16815260200190815260200160002060026028811015156131ff57fe5b01819055505b6000600460008e73ffffffffffffffffffffffffffffffffffffffff1673ffffffffffffffffffffffffffffffffffffffff168152602001908152602001600020600060288110151561325457fe5b0180546001816001161561010002031660029004905014156132d45789600460008e73ffffffffffffffffffffffffffffffffffffffff1673ffffffffffffffffffffffffffffffffffffffff16815260200190815260200160002060006028811015156132be57fe5b0190805190602001906132d2929190613aee565b505b6000600460008e73ffffffffffffffffffffffffffffffffffffffff1673ffffffffffffffffffffffffffffffffffffffff168152602001908152602001600020600160288110151561332357fe5b0180546001816001161561010002031660029004905014156133a35788600460008e73ffffffffffffffffffffffffffffffffffffffff1673ffffffffffffffffffffffffffffffffffffffff168152602001908152602001600020600160288110151561338d57fe5b0190805190602001906133a1929190613aee565b505b6000600460008e73ffffffffffffffffffffffffffffffffffffffff1673ffffffffffffffffffffffffffffffffffffffff16815260200190815260200160002060026028811015156133f257fe5b0180546001816001161561010002031660029004905014156134725787600460008e73ffffffffffffffffffffffffffffffffffffffff1673ffffffffffffffffffffffffffffffffffffffff168152602001908152602001600020600260288110151561345c57fe5b019080519060200190613470929190613aee565b505b6000600460008e73ffffffffffffffffffffffffffffffffffffffff1673ffffffffffffffffffffffffffffffffffffffff16815260200190815260200160002060036028811015156134c157fe5b0180546001816001161561010002031660029004905014156135415786600460008e73ffffffffffffffffffffffffffffffffffffffff1673ffffffffffffffffffffffffffffffffffffffff168152602001908152602001600020600360288110151561352b57fe5b01908051906020019061353f929190613aee565b505b6000600460008e73ffffffffffffffffffffffffffffffffffffffff1673ffffffffffffffffffffffffffffffffffffffff168152602001908152602001600020600460288110151561359057fe5b0180546001816001161561010002031660029004905014156136105785600460008e73ffffffffffffffffffffffffffffffffffffffff1673ffffffffffffffffffffffffffffffffffffffff16815260200190815260200160002060046028811015156135fa57fe5b01908051906020019061360e929190613aee565b505b6000600460008e73ffffffffffffffffffffffffffffffffffffffff1673ffffffffffffffffffffffffffffffffffffffff168152602001908152602001600020600560288110151561365f57fe5b0180546001816001161561010002031660029004905014156136df5784600460008e73ffffffffffffffffffffffffffffffffffffffff1673ffffffffffffffffffffffffffffffffffffffff16815260200190815260200160002060056028811015156136c957fe5b0190805190602001906136dd929190613aee565b505b6000600460008e73ffffffffffffffffffffffffffffffffffffffff1673ffffffffffffffffffffffffffffffffffffffff168152602001908152602001600020600660288110151561372e57fe5b0180546001816001161561010002031660029004905014156137ae5783600460008e73ffffffffffffffffffffffffffffffffffffffff1673ffffffffffffffffffffffffffffffffffffffff168152602001908152602001600020600660288110151561379857fe5b0190805190602001906137ac929190613aee565b505b6000600460008e73ffffffffffffffffffffffffffffffffffffffff1673ffffffffffffffffffffffffffffffffffffffff16815260200190815260200160002060076028811015156137fd57fe5b01805460018160011615610100020316600290049050141561387d5782600460008e73ffffffffffffffffffffffffffffffffffffffff1673ffffffffffffffffffffffffffffffffffffffff168152602001908152602001600020600760288110151561386757fe5b01908051906020019061387b929190613aee565b505b6000600460008e73ffffffffffffffffffffffffffffffffffffffff1673ffffffffffffffffffffffffffffffffffffffff16815260200190815260200160002060086028811015156138cc57fe5b01805460018160011615610100020316600290049050141561394c5781600460008e73ffffffffffffffffffffffffffffffffffffffff1673ffffffffffffffffffffffffffffffffffffffff168152602001908152602001600020600860288110151561393657fe5b01908051906020019061394a929190613aee565b505b42600260008e73ffffffffffffffffffffffffffffffffffffffff1673ffffffffffffffffffffffffffffffffffffffff168152602001908152602001600020600060148110151561399a57fe5b018190555060018060008e73ffffffffffffffffffffffffffffffffffffffff1673ffffffffffffffffffffffffffffffffffffffff1681526020019081526020016000206001601e811015156139ed57fe5b602091828204019190066101000a81548160ff021916908315150217905550600115157fbd70a8755b4f719e8e80bbb0fca601f2b000a3ce221c69b1bd5014fe1bfd747060405160405180910390a26040805190810160405280600c81526020017f554944206973207472756521000000000000000000000000000000000000000081525090509b9a5050505050505050505050565b600360205281600052604060002081601481101515613a9e57fe5b016000915091509054906101000a900473ffffffffffffffffffffffffffffffffffffffff1681565b600260205281600052604060002081601481101515613ae257fe5b01600091509150505481565b828054600181600116156101000203166002900490600052602060002090601f016020900481019282601f10613b2f57805160ff1916838001178555613b5d565b82800160010185558215613b5d579182015b82811115613b5c578251825591602001919060010190613b41565b5b509050613b6a9190613b6e565b5090565b613b9091905b80821115613b8c576000816000905550600101613b74565b5090565b90565b6000613b9f82356144b4565b905092915050565b600082601f8301121515613bba57600080fd5b8135613bcd613bc882614414565b6143e7565b91508181835260208401935060208101905083856020840282011115613bf257600080fd5b60005b83811015613c225781613c088882613c96565b845260208401935060208301925050600181019050613bf5565b5050505092915050565b6000613c3882516144d4565b905092915050565b600082601f8301121515613c5357600080fd5b8135613c66613c618261443c565b6143e7565b91508082526020830160208301858383011115613c8257600080fd5b613c8d8382846144e8565b50505092915050565b6000613ca282356144de565b905092915050565b600060208284031215613cbc57600080fd5b6000613cca84828501613b93565b91505092915050565b60008060408385031215613ce657600080fd5b6000613cf485828601613b93565b9250506020613d0585828601613b93565b9150509250929050565b600080600080600080600060e0888a031215613d2a57600080fd5b6000613d388a828b01613b93565b975050602088013567ffffffffffffffff811115613d5557600080fd5b613d618a828b01613ba7565b965050604088013567ffffffffffffffff811115613d7e57600080fd5b613d8a8a828b01613c40565b955050606088013567ffffffffffffffff811115613da757600080fd5b613db38a828b01613c40565b945050608088013567ffffffffffffffff811115613dd057600080fd5b613ddc8a828b01613c40565b93505060a088013567ffffffffffffffff811115613df957600080fd5b613e058a828b01613c40565b92505060c088013567ffffffffffffffff811115613e2257600080fd5b613e2e8a828b01613c40565b91505092959891949750929550565b6000806000806000806000806000806101408b8d031215613e5d57600080fd5b6000613e6b8d828e01613b93565b9a505060208b013567ffffffffffffffff811115613e8857600080fd5b613e948d828e01613ba7565b99505060408b013567ffffffffffffffff811115613eb157600080fd5b613ebd8d828e01613c40565b98505060608b013567ffffffffffffffff811115613eda57600080fd5b613ee68d828e01613c40565b97505060808b013567ffffffffffffffff811115613f0357600080fd5b613f0f8d828e01613c40565b96505060a08b013567ffffffffffffffff811115613f2c57600080fd5b613f388d828e01613c40565b95505060c08b013567ffffffffffffffff811115613f5557600080fd5b613f618d828e01613c40565b94505060e08b013567ffffffffffffffff811115613f7e57600080fd5b613f8a8d828e01613c40565b9350506101008b013567ffffffffffffffff811115613fa857600080fd5b613fb48d828e01613c40565b9250506101208b013567ffffffffffffffff811115613fd257600080fd5b613fde8d828e01613c40565b9150509295989b9194979a5092959850565b60008060008060008060008060008060006101608c8e03121561401257600080fd5b60006140208e828f01613b93565b9b505060208c013567ffffffffffffffff81111561403d57600080fd5b6140498e828f01613ba7565b9a505060408c013567ffffffffffffffff81111561406657600080fd5b6140728e828f01613c40565b99505060608c013567ffffffffffffffff81111561408f57600080fd5b61409b8e828f01613c40565b98505060808c013567ffffffffffffffff8111156140b857600080fd5b6140c48e828f01613c40565b97505060a08c013567ffffffffffffffff8111156140e157600080fd5b6140ed8e828f01613c40565b96505060c08c013567ffffffffffffffff81111561410a57600080fd5b6141168e828f01613c40565b95505060e08c013567ffffffffffffffff81111561413357600080fd5b61413f8e828f01613c40565b9450506101008c013567ffffffffffffffff81111561415d57600080fd5b6141698e828f01613c40565b9350506101208c013567ffffffffffffffff81111561418757600080fd5b6141938e828f01613c40565b9250506101408c013567ffffffffffffffff8111156141b157600080fd5b6141bd8e828f01613c40565b9150509295989b509295989b9093969950565b600080604083850312156141e357600080fd5b60006141f185828601613b93565b925050602083013567ffffffffffffffff81111561420e57600080fd5b61421a85828601613c40565b9150509250929050565b6000806040838503121561423757600080fd5b600061424585828601613b93565b925050602061425685828601613c96565b9150509250929050565b60006020828403121561427257600080fd5b600061428084828501613c2c565b91505092915050565b6142928161447e565b82525050565b6142a18161449e565b82525050565b60006142b282614473565b8084526142c68160208601602086016144f7565b6142cf8161452a565b602085010191505092915050565b60006142e882614468565b8084526142fc8160208601602086016144f7565b6143058161452a565b602085010191505092915050565b61431c816144aa565b82525050565b60006020820190506143376000830184614289565b92915050565b60006020820190506143526000830184614298565b92915050565b6000602082019050818103600083015261437281846142dd565b905092915050565b6000602082019050818103600083015261439481846142a7565b905092915050565b600060408201905081810360008301526143b681856142dd565b90506143c56020830184614298565b9392505050565b60006020820190506143e16000830184614313565b92915050565b6000604051905081810181811067ffffffffffffffff8211171561440a57600080fd5b8060405250919050565b600067ffffffffffffffff82111561442b57600080fd5b602082029050602081019050919050565b600067ffffffffffffffff82111561445357600080fd5b601f19601f8301169050602081019050919050565b600081519050919050565b600081519050919050565b600073ffffffffffffffffffffffffffffffffffffffff82169050919050565b60008115159050919050565b6000819050919050565b600073ffffffffffffffffffffffffffffffffffffffff82169050919050565b6000819050919050565b6000819050919050565b82818337600083830152505050565b60005b838110156145155780820151818401526020810190506144fa565b83811115614524576000848401525b50505050565b6000601f19601f83011690509190505600a265627a7a723058208e8c75a7e92f7ba4e8b9753372c8f8c9d0959b295ad837edd2b2796a80d24dbb6c6578706572696d656e74616cf50037",
  "source": "pragma solidity ^0.4.24;\npragma experimental ABIEncoderV2;\n\ncontract Shipping{\n\n///////////////////////////STRUCT, VARIABLES AND MAPPINGS///////////////////////\n\n    address Owner;\n\n    mapping (address => bool[30]) public databoolmapping;\n    // isgenerated =0; isIGMcreated = 1; isIGMverified = 2; isBillofEntrycreated = 3;\n    //isBillofEntryverified = 4; isBillofLadingcreated = 5; isBillofLadingverified = 6;\n    mapping (address => uint[20]) public datatimestampmapping;\n    // IGMgeneration_timestamp = 0; IGMverefication_timestamp = 1;\n    //BillofEntrygeneration_timestamp = 2; BillofEntryverification_timestamp = 3\n    //BillofLading_timestamp = 4;\n    mapping (address => address[20]) public dataofficialaddressmapping;\n    //IGM_official_address = 0; BillofEntry_official_address = 1; BillofLading_official_address = 2;\n    mapping (address => string[40]) public datastringmapping;\n    // nameofexporter = 0; commoditydescription = 1; country = 2; nameofoceancarrier = 3\n    // nameofshipper = 4; vesselname = 5; placeofissue = 6; placeofdelivery = 7;\n    // portofloading = 8; nameofimporter = 9;\n    mapping (address => uint[40]) public datauintmapping;\n    // billno = 0; weightofcargo = 1; containernumber = 2; custom_duty = 3; cha_code = 4; GST = 5;\n    mapping (address => address[10]) public permitsstringmapping;\n    //Import_Permit_UID = 0;\n    mapping (address => bool[10]) public permitboolmapping;\n    //isImport_Permit_submitted = 0;\n\n    struct IGM_officialsStruct {\n        string name;\n        bool isauthorized;\n    }\n\n    struct BillofEntry_officialsStruct {\n        string name;\n        bool isauthorized;\n    }\n\n    struct BillofLading_officialsStruct {\n        string name;\n        bool isauthorized;\n    }\n\n    struct customs_officialsStruct {\n        string name;\n        bool isauthorized;\n    }\n\n    struct shed_officialsStruct {\n        string name;\n        bool isauthorized;\n    }\n\n    mapping (address => IGM_officialsStruct) public IGM_officials;\n    mapping (address => BillofEntry_officialsStruct) public BillofEntry_officials;\n    mapping (address => BillofLading_officialsStruct) public BillofLading_officials;\n    mapping (address => customs_officialsStruct) public customs_officials;\n    mapping (address => shed_officialsStruct) public shed_officials;\n\n/////////////////////////STRUCT, VARIABLES AND MAPPINGS END//////////////////////\n\n//////////////////////////////////////EVENTS/////////////////////////////////////\n\n    event GetUniqueIdEvent(address indexed _uniqueId);\n\n    event CheckUniqueIdEvent(bool indexed _isgenerated);\n\n///////////////////////////////////EVENTS END////////////////////////////////////\n\n///////////////////////CONSTRUCTOR & DEFAULT FUNCTIONS///////////////////////////\n\n    constructor(){\n        Owner = msg.sender;\n    }\n\n    function GetUniqueId() {\n        // 'now' == Current timestamp\n        // 'msg.sender' == Ethereum address of contract creator\n        address uniqueId = address(sha256(msg.sender, now));\n        databoolmapping[uniqueId][0] = true;\n        GetUniqueIdEvent(uniqueId);\n    }\n\n////////////////////CONSTRUCTOR & DEFAULT FUNCTIONS END//////////////////////////\n\n\n///////////////////////////////////MODIFIERS/////////////////////////////////////\n\n    modifier onlyOwner(){\n        require(Owner == msg.sender);\n        _;\n    }\n\n/////////////////////////////////MODIFIERS END///////////////////////////////////\n\n//////////////////////////////////////PERMITS////////////////////////////////////\n\nfunction setImportPermit(address _uniqueId, address _uniqueId_Permit) returns (string){\n    if(permitboolmapping[_uniqueId][0]){\n        return \"Import Permit already submitted\";\n        throw;\n    }\n    permitsstringmapping[_uniqueId][0] = _uniqueId_Permit;\n    permitboolmapping[_uniqueId][0] = true;\n    return \"Import Permit submitted\";\n}\n\n/////////////////////////////////////PERMITS END/////////////////////////////////\n\n////////////////////////////////IGM FUNCTIONS////////////////////////////////////\n\n\n\n   // address _uniqueId, uint _billno, string[] _nameofexporter,\n  //  string _commoditydescription, string _country, string _nameofcarrier,\n   // string _nameofshipper, string _vesselname, uint _weightofcargo, uint _containernumner,\n   // string _placeofissue, string _placeofdelivery, string _portofloading\n\n        // nameofexporter = 0; commoditydescription = 1; country = 2; nameofoceancarrier = 3\n    // nameofshipper = 4; vesselname = 5; placeofissue = 6; placeofdelivery = 7;\n    // portofloading = 8\n    // billno = 0; weightofcargo = 1; containernumber = 2;\n    function SetIGMdata(address _uniqueId, uint[] datauint, string _nameofexporter,\n    string _commoditydescription, string _country, string _nameofoceancarrier,\n    string _nameofshipper, string _vesselname, string _placeofissue, string _placeofdelivery,\n    string _portofloading) returns (string){\n        if(!databoolmapping[_uniqueId][0]){\n            CheckUniqueIdEvent(false);\n            throw;\n            return \"UID is false!\";\n        }\n\n        if(databoolmapping[_uniqueId][1]){\n            throw;\n            return \"IGM already created with this UID\";\n        }\n        if(datauintmapping[_uniqueId][0] == 0){datauintmapping[_uniqueId][0] = datauint[0];}\n        if(datauintmapping[_uniqueId][1] == 0){datauintmapping[_uniqueId][1] = datauint[1];}\n        if(datauintmapping[_uniqueId][2] == 0){datauintmapping[_uniqueId][2] = datauint[2];}\n\n        if(bytes(datastringmapping[_uniqueId][0]).length == 0){datastringmapping[_uniqueId][0] = _nameofexporter;}\n        if(bytes(datastringmapping[_uniqueId][1]).length == 0){datastringmapping[_uniqueId][1] = _commoditydescription;}\n        if(bytes(datastringmapping[_uniqueId][2]).length == 0){datastringmapping[_uniqueId][2] = _country;}\n        if(bytes(datastringmapping[_uniqueId][3]).length == 0){datastringmapping[_uniqueId][3] = _nameofoceancarrier;}\n        if(bytes(datastringmapping[_uniqueId][4]).length == 0){datastringmapping[_uniqueId][4] = _nameofshipper;}\n        if(bytes(datastringmapping[_uniqueId][5]).length == 0){datastringmapping[_uniqueId][5] = _vesselname;}\n        if(bytes(datastringmapping[_uniqueId][6]).length == 0){datastringmapping[_uniqueId][6] = _placeofissue;}\n        if(bytes(datastringmapping[_uniqueId][7]).length == 0){datastringmapping[_uniqueId][7] = _placeofdelivery;}\n        if(bytes(datastringmapping[_uniqueId][8]).length == 0){datastringmapping[_uniqueId][8] = _portofloading;}\n\n\n        datatimestampmapping[_uniqueId][0] = now;\n        databoolmapping[_uniqueId][1] = true;\n        CheckUniqueIdEvent(true);\n        return \"UID is true!\";\n    }\n\n    function authorize_IGM(address _address, string _name) onlyOwner returns(string) {\n        if(!IGM_officials[_address].isauthorized){\n            IGM_officials[_address].isauthorized = true;\n            IGM_officials[_address].name = _name;\n            return \"IGM official authorized\";\n        }else{\n            IGM_officials[_address].isauthorized = false;\n            return \"IGM official unauthorized\";\n        }\n    }\n\n    function sign_IGM (address _uniqueId) returns (string){\n        if(!IGM_officials[msg.sender].isauthorized){\n            throw;\n            return \"Person is not authorized\";\n        }\n        if(databoolmapping[_uniqueId][2]){\n            throw;\n            return \"IGM with this UID is already verified\";\n        }\n        if(!databoolmapping[_uniqueId][0]){\n            throw;\n            return \"UID is false!\";\n        }\n\n        dataofficialaddressmapping[_uniqueId][0] = msg.sender;\n        databoolmapping[_uniqueId][2] = true;\n        datatimestampmapping[_uniqueId][1] = now;\n        return \"IGM form is signed by official\";\n    }\n\n///////////////////////////////IGM FUNCTIONS END//////////////////////////////////\n\n////////////////////////////BILL OF ENTRY FUNCTIONS///////////////////////////////\n\n\n    // billno = 0; weightofcargo = 1; containernumber = 2; custom_duty = 3; cha_code = 4; GST = 5;\n    // nameofexporter = 0; commoditydescription = 1; country = 2; nameofoceancarrier = 3\n    // nameofshipper = 4; vesselname = 5; placeofissue = 6; placeofdelivery = 7;\n    // portofloading = 8 nameofimporter = 9;\n    function SetBillofEntrydata(address _uniqueId, uint[] datauint, string _nameofimporter,\n    string _commoditydescription, string _country, string _nameofoceancarrier,\n    string _vesselname) returns (string){\n        if(!databoolmapping[_uniqueId][0]){\n            CheckUniqueIdEvent(false);\n            throw;\n            return \"UID is false!\";\n        }\n\n        if(databoolmapping[_uniqueId][3]){\n            throw;\n            return \"Bill of Entry already created with this UID\";\n        }\n\n        if(datauintmapping[_uniqueId][1] == 0){datauintmapping[_uniqueId][1] = datauint[0];} //weightofcargo\n        if(datauintmapping[_uniqueId][3] == 0){datauintmapping[_uniqueId][3] = datauint[1];} //custom_duty\n        if(datauintmapping[_uniqueId][4] == 0){datauintmapping[_uniqueId][4] = datauint[2];} //cha_code\n        if(datauintmapping[_uniqueId][5] == 0){datauintmapping[_uniqueId][5] = datauint[3];} //GST\n\n        if(bytes(datastringmapping[_uniqueId][9]).length == 0){datastringmapping[_uniqueId][9] = _nameofimporter;}\n        if(bytes(datastringmapping[_uniqueId][1]).length == 0){datastringmapping[_uniqueId][1] = _commoditydescription;}\n        if(bytes(datastringmapping[_uniqueId][2]).length == 0){datastringmapping[_uniqueId][2] = _country;}\n        if(bytes(datastringmapping[_uniqueId][3]).length == 0){datastringmapping[_uniqueId][3] = _nameofoceancarrier;}\n        if(bytes(datastringmapping[_uniqueId][5]).length == 0){datastringmapping[_uniqueId][5] = _vesselname;}\n\n        datatimestampmapping[_uniqueId][2] = now;\n        databoolmapping[_uniqueId][3] = true;\n        CheckUniqueIdEvent(true);\n        return \"UID is true!\";\n    }\n\n    function authorize_Bill_of_Entry(address _address, string _name) onlyOwner returns(string) {\n        if(!BillofEntry_officials[_address].isauthorized){\n            BillofEntry_officials[_address].isauthorized = true;\n            BillofEntry_officials[_address].name = _name;\n            return \"BillofEntry official authorized\";\n        }else{\n            BillofEntry_officials[_address].isauthorized = false;\n            return \"BillofEntry official unauthorized\";\n        }\n    }\n\n    function sign_Bill_of_Entry(address _uniqueId) returns (string){\n        if(!BillofEntry_officials[msg.sender].isauthorized){\n            throw;\n            return \"Person is not authorized\";\n        }\n        if(databoolmapping[_uniqueId][4]){\n            throw;\n            return \"BillofEntry with this UID is already verified\";\n        }\n        if(!databoolmapping[_uniqueId][0]){\n            throw;\n            return \"UID is false!\";\n        }\n\n        dataofficialaddressmapping[_uniqueId][1] = msg.sender;\n        databoolmapping[_uniqueId][4] = true;\n        datatimestampmapping[_uniqueId][3] = now;\n        return \"BillofEntry form is signed by official\";\n    }\n\n///////////////////////////BILL OF ENTRY FUNCTIONS END///////////////////////////\n\n\n////////////////////////////BILL OF LADING FUNCTIONS///////////////////////////////\n\n    function SetBillofLadingdata(address _uniqueId, uint[] datauint, string _nameofimporter,\n    string _nameofexporter, string _commoditydescription, string _country,\n    string _nameofoceancarrier, string _vesselname, string _portofloading, string _placeofdelivery) returns (string){\n        if(!databoolmapping[_uniqueId][0]){\n            CheckUniqueIdEvent(false);\n            throw;\n            return \"UID is false!\";\n        }\n\n        if(databoolmapping[_uniqueId][5]){\n            throw;\n            return \"Bill of Lading already created with this UID\";\n        }\n\n        if(datauintmapping[_uniqueId][1] == 0){datauintmapping[_uniqueId][1] = datauint[0];} //weightofcargo\n\n        if(bytes(datastringmapping[_uniqueId][9]).length == 0){datastringmapping[_uniqueId][9] = _nameofimporter;}\n        if(bytes(datastringmapping[_uniqueId][1]).length == 0){datastringmapping[_uniqueId][1] = _commoditydescription;}\n        if(bytes(datastringmapping[_uniqueId][2]).length == 0){datastringmapping[_uniqueId][2] = _country;}\n        if(bytes(datastringmapping[_uniqueId][3]).length == 0){datastringmapping[_uniqueId][3] = _nameofoceancarrier;}\n        if(bytes(datastringmapping[_uniqueId][5]).length == 0){datastringmapping[_uniqueId][5] = _vesselname;}\n        if(bytes(datastringmapping[_uniqueId][8]).length == 0){datastringmapping[_uniqueId][8] = _portofloading;}\n        if(bytes(datastringmapping[_uniqueId][7]).length == 0){datastringmapping[_uniqueId][7] = _placeofdelivery;}\n        if(bytes(datastringmapping[_uniqueId][0]).length == 0){datastringmapping[_uniqueId][0] = _nameofexporter;}\n\n        datatimestampmapping[_uniqueId][4] = now;\n        databoolmapping[_uniqueId][5] = true;\n        CheckUniqueIdEvent(true);\n        return \"UID is true!\";\n    }\n\n    //IGM_official_address = 0; BillofEntry_official_address = 1; BillofLading_official_address = 2;\n\n    // IGMgeneration_timestamp = 0; IGMverefication_timestamp = 1;\n    //BillofEntrygeneration_timestamp = 2; BillofEntryverification_timestamp = 3\n    //BillofLadinggeneration_timestamp = 4; BillofLadingverification_timestamp = 5\n\n    // isgenerated =0; isIGMcreated = 1; isIGMverified = 2; isBillofEntrycreated = 3;\n    //isBillofEntryverified = 4; isBillofLadingcreated = 5; isBillofLadingverified = 6;\n\n    // billno = 0; weightofcargo = 1; containernumber = 2; custom_duty = 3; cha_code = 4; GST = 5;\n\n    // nameofexporter = 0; commoditydescription = 1; country = 2; nameofoceancarrier = 3\n    // nameofshipper = 4; vesselname = 5; placeofissue = 6; placeofdelivery = 7;\n    // portofloading = 8 nameofimporter = 9;\n\n    function sign_Bill_of_Lading(address _uniqueId) returns (string){\n       /* if(!BillofEntry_officials[msg.sender].isauthorized){\n            throw;\n            return \"Person is not authorized\";\n        }*/\n        if(databoolmapping[_uniqueId][6]){\n            throw;\n            return \"BillofEntry with this UID is already verified\";\n        }\n        if(!databoolmapping[_uniqueId][0]){\n            throw;\n            return \"UID is false!\";\n        }\n\n        dataofficialaddressmapping[_uniqueId][2] = msg.sender;\n        databoolmapping[_uniqueId][6] = true;\n        datatimestampmapping[_uniqueId][5] = now;\n        return \"BillofEntry form is signed by official\";\n    }\n\n///////////////////////////BILL OF LADING FUNCTIONS END///////////////////////////\n\n\n\n}\n\n\n\n",
  "sourcePath": "/Users/krishnakulkarni/Documents/MOVEHACK_2018/GIT/DISHA/contracts/Shipping.sol",
  "compiler": {
    "name": "solc",
    "version": "0.4.24+commit.e67f0147.Emscripten.clang"
  },
  "schemaVersion": "2.0.1",
  "updatedAt": "2018-08-25T15:43:48.314Z"
}