{
  "contractName": "Shipping",
  "abi": [
    {
      "constant": true,
      "inputs": [
        {
          "name": "",
          "type": "address"
        }
      ],
      "name": "datamapping",
      "outputs": [
        {
          "name": "isgenerated",
          "type": "bool"
        },
        {
          "name": "billno",
          "type": "uint256"
        },
        {
          "name": "nameofexporter",
          "type": "string"
        },
        {
          "name": "commoditydescription",
          "type": "string"
        },
        {
          "name": "IGM_timestamp",
          "type": "uint256"
        },
        {
          "name": "IGM_signed_official",
          "type": "address"
        }
      ],
      "payable": false,
      "stateMutability": "view",
      "type": "function"
    },
    {
      "constant": true,
      "inputs": [
        {
          "name": "",
          "type": "address"
        }
      ],
      "name": "IGM_officials",
      "outputs": [
        {
          "name": "name",
          "type": "string"
        },
        {
          "name": "isauthorized",
          "type": "bool"
        }
      ],
      "payable": false,
      "stateMutability": "view",
      "type": "function"
    },
    {
      "inputs": [],
      "payable": false,
      "stateMutability": "nonpayable",
      "type": "constructor"
    },
    {
      "anonymous": false,
      "inputs": [
        {
          "indexed": true,
          "name": "_uniqueId",
          "type": "address"
        }
      ],
      "name": "GetUniqueIdEvent",
      "type": "event"
    },
    {
      "anonymous": false,
      "inputs": [
        {
          "indexed": true,
          "name": "_isgenerated",
          "type": "bool"
        }
      ],
      "name": "CheckUniqueIdEvent",
      "type": "event"
    },
    {
      "anonymous": false,
      "inputs": [
        {
          "indexed": true,
          "name": "_isIGMofficialverified",
          "type": "bool"
        }
      ],
      "name": "CheckIGMofficialverificationEvent",
      "type": "event"
    },
    {
      "constant": false,
      "inputs": [],
      "name": "GetUniqueId",
      "outputs": [],
      "payable": false,
      "stateMutability": "nonpayable",
      "type": "function"
    },
    {
      "constant": false,
      "inputs": [
        {
          "name": "_uniqueId",
          "type": "address"
        },
        {
          "name": "_billno",
          "type": "uint256"
        },
        {
          "name": "_nameofexporter",
          "type": "string"
        }
      ],
      "name": "SetIGMdata",
      "outputs": [
        {
          "name": "",
          "type": "string"
        }
      ],
      "payable": false,
      "stateMutability": "nonpayable",
      "type": "function"
    },
    {
      "constant": false,
      "inputs": [
        {
          "name": "_address",
          "type": "address"
        },
        {
          "name": "_name",
          "type": "string"
        }
      ],
      "name": "authorize_IGM",
      "outputs": [],
      "payable": false,
      "stateMutability": "nonpayable",
      "type": "function"
    },
    {
      "constant": false,
      "inputs": [
        {
          "name": "_uniqueId",
          "type": "address"
        }
      ],
      "name": "sign_IGM",
      "outputs": [
        {
          "name": "",
          "type": "string"
        }
      ],
      "payable": false,
      "stateMutability": "nonpayable",
      "type": "function"
    }
  ],
  "bytecode": "0x608060405234801561001057600080fd5b50336000806101000a81548173ffffffffffffffffffffffffffffffffffffffff021916908373ffffffffffffffffffffffffffffffffffffffff160217905550610e72806100606000396000f300608060405260043610610078576000357c0100000000000000000000000000000000000000000000000000000000900463ffffffff168063068088c41461007d5780631aea3ce5146101f157806361a12e89146102fd578063807d00a7146103b9578063901b1cd3146104425780639ecfde7914610459575b600080fd5b34801561008957600080fd5b506100be600480360381019080803573ffffffffffffffffffffffffffffffffffffffff169060200190929190505050610520565b604051808715151515815260200186815260200180602001806020018581526020018473ffffffffffffffffffffffffffffffffffffffff1673ffffffffffffffffffffffffffffffffffffffff168152602001838103835287818151815260200191508051906020019080838360005b8381101561014a57808201518184015260208101905061012f565b50505050905090810190601f1680156101775780820380516001836020036101000a031916815260200191505b50838103825286818151815260200191508051906020019080838360005b838110156101b0578082015181840152602081019050610195565b50505050905090810190601f1680156101dd5780820380516001836020036101000a031916815260200191505b509850505050505050505060405180910390f35b3480156101fd57600080fd5b50610282600480360381019080803573ffffffffffffffffffffffffffffffffffffffff16906020019092919080359060200190929190803590602001908201803590602001908080601f01602080910402602001604051908101604052809392919081815260200183838082843782019150505050505091929192905050506106b9565b6040518080602001828103825283818151815260200191508051906020019080838360005b838110156102c25780820151818401526020810190506102a7565b50505050905090810190601f1680156102ef5780820380516001836020036101000a031916815260200191505b509250505060405180910390f35b34801561030957600080fd5b5061033e600480360381019080803573ffffffffffffffffffffffffffffffffffffffff1690602001909291905050506108d3565b6040518080602001828103825283818151815260200191508051906020019080838360005b8381101561037e578082015181840152602081019050610363565b50505050905090810190601f1680156103ab5780820380516001836020036101000a031916815260200191505b509250505060405180910390f35b3480156103c557600080fd5b50610440600480360381019080803573ffffffffffffffffffffffffffffffffffffffff169060200190929190803590602001908201803590602001908080601f0160208091040260200160405190810160405280939291908181526020018383808284378201915050505050509192919290505050610a87565b005b34801561044e57600080fd5b50610457610b98565b005b34801561046557600080fd5b5061049a600480360381019080803573ffffffffffffffffffffffffffffffffffffffff169060200190929190505050610cd8565b604051808060200183151515158152602001828103825284818151815260200191508051906020019080838360005b838110156104e45780820151818401526020810190506104c9565b50505050905090810190601f1680156105115780820380516001836020036101000a031916815260200191505b50935050505060405180910390f35b60016020528060005260406000206000915090508060000160009054906101000a900460ff1690806001015490806002018054600181600116156101000203166002900480601f0160208091040260200160405190810160405280929190818152602001828054600181600116156101000203166002900480156105e55780601f106105ba576101008083540402835291602001916105e5565b820191906000526020600020905b8154815290600101906020018083116105c857829003601f168201915b505050505090806003018054600181600116156101000203166002900480601f0160208091040260200160405190810160405280929190818152602001828054600181600116156101000203166002900480156106835780601f1061065857610100808354040283529160200191610683565b820191906000526020600020905b81548152906001019060200180831161066657829003601f168201915b5050505050908060040154908060050160009054906101000a900473ffffffffffffffffffffffffffffffffffffffff16905086565b6060600160008573ffffffffffffffffffffffffffffffffffffffff1673ffffffffffffffffffffffffffffffffffffffff16815260200190815260200160002060000160009054906101000a900460ff16151561077e57600015157fbd70a8755b4f719e8e80bbb0fca601f2b000a3ce221c69b1bd5014fe1bfd747060405160405180910390a26040805190810160405280600d81526020017f5549442069732066616c7365210000000000000000000000000000000000000081525090506108cc565b82600160008673ffffffffffffffffffffffffffffffffffffffff1673ffffffffffffffffffffffffffffffffffffffff1681526020019081526020016000206001018190555081600160008673ffffffffffffffffffffffffffffffffffffffff1673ffffffffffffffffffffffffffffffffffffffff168152602001908152602001600020600201908051906020019061081b929190610da1565b5042600160008673ffffffffffffffffffffffffffffffffffffffff1673ffffffffffffffffffffffffffffffffffffffff16815260200190815260200160002060040181905550600115157fbd70a8755b4f719e8e80bbb0fca601f2b000a3ce221c69b1bd5014fe1bfd747060405160405180910390a26040805190810160405280600c81526020017f554944206973207472756521000000000000000000000000000000000000000081525090505b9392505050565b6060600260003373ffffffffffffffffffffffffffffffffffffffff1673ffffffffffffffffffffffffffffffffffffffff16815260200190815260200160002060010160009054906101000a900460ff16151561099857600015157fbde38e19375145a9b2d349438921d838ca88cb60cc4eaf928117a1cc42fcd5c760405160405180910390a26040805190810160405280601881526020017f506572736f6e206973206e6f7420617574686f72697a656400000000000000008152509050610a82565b33600160008473ffffffffffffffffffffffffffffffffffffffff1673ffffffffffffffffffffffffffffffffffffffff16815260200190815260200160002060050160006101000a81548173ffffffffffffffffffffffffffffffffffffffff021916908373ffffffffffffffffffffffffffffffffffffffff160217905550600115157fbde38e19375145a9b2d349438921d838ca88cb60cc4eaf928117a1cc42fcd5c760405160405180910390a26040805190810160405280601e81526020017f49474d20666f726d206973207369676e6564206279206f6666696369616c000081525090505b919050565b3373ffffffffffffffffffffffffffffffffffffffff166000809054906101000a900473ffffffffffffffffffffffffffffffffffffffff1673ffffffffffffffffffffffffffffffffffffffff16141515610ae257600080fd5b80600260008473ffffffffffffffffffffffffffffffffffffffff1673ffffffffffffffffffffffffffffffffffffffff1681526020019081526020016000206000019080519060200190610b38929190610da1565b506001600260008473ffffffffffffffffffffffffffffffffffffffff1673ffffffffffffffffffffffffffffffffffffffff16815260200190815260200160002060010160006101000a81548160ff0219169083151502179055505050565b600060023342604051808373ffffffffffffffffffffffffffffffffffffffff1673ffffffffffffffffffffffffffffffffffffffff166c01000000000000000000000000028152601401828152602001925050506020604051808303816000865af1158015610c0c573d6000803e3d6000fd5b5050506040513d6020811015610c2157600080fd5b810190808051906020019092919050505060019004905060018060008373ffffffffffffffffffffffffffffffffffffffff1673ffffffffffffffffffffffffffffffffffffffff16815260200190815260200160002060000160006101000a81548160ff0219169083151502179055508073ffffffffffffffffffffffffffffffffffffffff167fb05e7facb1893c2f6874964db9b1738601724af978281901c43bb184a37a424d60405160405180910390a250565b6002602052806000526040600020600091509050806000018054600181600116156101000203166002900480601f016020809104026020016040519081016040528092919081815260200182805460018160011615610100020316600290048015610d845780601f10610d5957610100808354040283529160200191610d84565b820191906000526020600020905b815481529060010190602001808311610d6757829003601f168201915b5050505050908060010160009054906101000a900460ff16905082565b828054600181600116156101000203166002900490600052602060002090601f016020900481019282601f10610de257805160ff1916838001178555610e10565b82800160010185558215610e10579182015b82811115610e0f578251825591602001919060010190610df4565b5b509050610e1d9190610e21565b5090565b610e4391905b80821115610e3f576000816000905550600101610e27565b5090565b905600a165627a7a7230582027826d8e112df43ea55d6fac21a47543232ca4b4eb920e4eff397361179789720029",
  "source": "pragma solidity ^0.4.8;\n\ncontract Shipping{\n\n///////////////////////////STRUCT, VARIABLES AND MAPPINGS///////////////////////\n\n    address Owner;\n\n    struct Data {\n        //Used to verify whether the ID is generated from this platform\n       bool isgenerated;   //Index 0\n       //////////IGM//////////////\n       uint billno; //Index 1\n       string nameofexporter; //Index 2\n       string commoditydescription; //Index 3\n       uint IGM_timestamp; //Index 4\n       address IGM_signed_official; //Index 5\n       //////////IGM END//////////////\n    }\n\n    mapping (address => Data) public datamapping;\n\n    struct IGM_officialsStruct {\n        string name;\n        bool isauthorized;\n    }\n\n    mapping (address => IGM_officialsStruct) public IGM_officials;\n\n\n/////////////////////////STRUCT, VARIABLES AND MAPPINGS END//////////////////////\n\n//////////////////////////////////////EVENTS/////////////////////////////////////\n\n    event GetUniqueIdEvent(address indexed _uniqueId);\n\n    event CheckUniqueIdEvent(bool indexed _isgenerated);\n\n    event CheckIGMofficialverificationEvent(bool indexed _isIGMofficialverified);\n\n///////////////////////////////////EVENTS END////////////////////////////////////\n\n///////////////////////CONSTRUCTOR & DEFAULT FUNCTIONS///////////////////////////\n\n    constructor(){\n        Owner = msg.sender;\n    }\n\n    function GetUniqueId() {\n        // 'now' == Current timestamp\n        // 'msg.sender' == Ethereum address of contract creator\n        address uniqueId = address(sha256(msg.sender, now));\n        datamapping[uniqueId].isgenerated = true;\n        GetUniqueIdEvent(uniqueId);\n    }\n\n////////////////////CONSTRUCTOR & DEFAULT FUNCTIONS END//////////////////////////\n\n\n///////////////////////////////////MODIFIERS/////////////////////////////////////\n\n    modifier onlyOwner(){\n        require(Owner == msg.sender);\n        _;\n    }\n\n/////////////////////////////////MODIFIERS END///////////////////////////////////\n\n////////////////////////////////IGM FUNCTIONS////////////////////////////////////\n\n    function SetIGMdata(address _uniqueId, uint _billno, string _nameofexporter) returns (string){\n        if(!datamapping[_uniqueId].isgenerated){\n            CheckUniqueIdEvent(false);\n            return \"UID is false!\";\n        }\n        datamapping[_uniqueId].billno = _billno;\n        datamapping[_uniqueId].nameofexporter = _nameofexporter;\n        datamapping[_uniqueId].IGM_timestamp = now;\n        CheckUniqueIdEvent(true);\n        return \"UID is true!\";\n    }\n\n    function authorize_IGM(address _address, string _name) onlyOwner {\n        IGM_officials[_address].name = _name;\n        IGM_officials[_address].isauthorized = true;\n    }\n\n    function sign_IGM (address _uniqueId) returns (string){\n        if(!IGM_officials[msg.sender].isauthorized){\n            CheckIGMofficialverificationEvent(false);\n            return \"Person is not authorized\";\n        }\n        datamapping[_uniqueId].IGM_signed_official = msg.sender;\n        CheckIGMofficialverificationEvent(true);\n        return \"IGM form is signed by official\";\n    }\n\n///////////////////////////////IGM FUNCTIONS END//////////////////////////////////\n\n}\n\n\n\n",
  "sourcePath": "/Users/krishnakulkarni/Documents/MOVEHACK_2018/GIT/DISHA/contracts/Shipping.sol",
  "compiler": {
    "name": "solc",
    "version": "0.4.24+commit.e67f0147.Emscripten.clang"
  },
  "schemaVersion": "2.0.1",
  "updatedAt": "2018-08-11T15:20:32.391Z"
}